{
  "_format": "hh-sol-artifact-1",
  "contractName": "CoffeeNFT",
  "sourceName": "contracts/CoffeeNFT.sol",
  "abi": [
    {
      "inputs": [],
      "stateMutability": "nonpayable",
      "type": "constructor"
    },
    {
      "inputs": [],
      "name": "ERC721EnumerableForbiddenBatchMint",
      "type": "error"
    },
    {
      "inputs": [
        {
          "internalType": "address",
          "name": "sender",
          "type": "address"
        },
        {
          "internalType": "uint256",
          "name": "tokenId",
          "type": "uint256"
        },
        {
          "internalType": "address",
          "name": "owner",
          "type": "address"
        }
      ],
      "name": "ERC721IncorrectOwner",
      "type": "error"
    },
    {
      "inputs": [
        {
          "internalType": "address",
          "name": "operator",
          "type": "address"
        },
        {
          "internalType": "uint256",
          "name": "tokenId",
          "type": "uint256"
        }
      ],
      "name": "ERC721InsufficientApproval",
      "type": "error"
    },
    {
      "inputs": [
        {
          "internalType": "address",
          "name": "approver",
          "type": "address"
        }
      ],
      "name": "ERC721InvalidApprover",
      "type": "error"
    },
    {
      "inputs": [
        {
          "internalType": "address",
          "name": "operator",
          "type": "address"
        }
      ],
      "name": "ERC721InvalidOperator",
      "type": "error"
    },
    {
      "inputs": [
        {
          "internalType": "address",
          "name": "owner",
          "type": "address"
        }
      ],
      "name": "ERC721InvalidOwner",
      "type": "error"
    },
    {
      "inputs": [
        {
          "internalType": "address",
          "name": "receiver",
          "type": "address"
        }
      ],
      "name": "ERC721InvalidReceiver",
      "type": "error"
    },
    {
      "inputs": [
        {
          "internalType": "address",
          "name": "sender",
          "type": "address"
        }
      ],
      "name": "ERC721InvalidSender",
      "type": "error"
    },
    {
      "inputs": [
        {
          "internalType": "uint256",
          "name": "tokenId",
          "type": "uint256"
        }
      ],
      "name": "ERC721NonexistentToken",
      "type": "error"
    },
    {
      "inputs": [
        {
          "internalType": "address",
          "name": "owner",
          "type": "address"
        },
        {
          "internalType": "uint256",
          "name": "index",
          "type": "uint256"
        }
      ],
      "name": "ERC721OutOfBoundsIndex",
      "type": "error"
    },
    {
      "inputs": [],
      "name": "InvalidMenuID",
      "type": "error"
    },
    {
      "inputs": [],
      "name": "NotAuthorized",
      "type": "error"
    },
    {
      "inputs": [
        {
          "internalType": "address",
          "name": "owner",
          "type": "address"
        }
      ],
      "name": "OwnableInvalidOwner",
      "type": "error"
    },
    {
      "inputs": [
        {
          "internalType": "address",
          "name": "account",
          "type": "address"
        }
      ],
      "name": "OwnableUnauthorizedAccount",
      "type": "error"
    },
    {
      "inputs": [],
      "name": "TokenNotExists",
      "type": "error"
    },
    {
      "anonymous": false,
      "inputs": [
        {
          "indexed": true,
          "internalType": "address",
          "name": "owner",
          "type": "address"
        },
        {
          "indexed": true,
          "internalType": "address",
          "name": "approved",
          "type": "address"
        },
        {
          "indexed": true,
          "internalType": "uint256",
          "name": "tokenId",
          "type": "uint256"
        }
      ],
      "name": "Approval",
      "type": "event"
    },
    {
      "anonymous": false,
      "inputs": [
        {
          "indexed": true,
          "internalType": "address",
          "name": "owner",
          "type": "address"
        },
        {
          "indexed": true,
          "internalType": "address",
          "name": "operator",
          "type": "address"
        },
        {
          "indexed": false,
          "internalType": "bool",
          "name": "approved",
          "type": "bool"
        }
      ],
      "name": "ApprovalForAll",
      "type": "event"
    },
    {
      "anonymous": false,
      "inputs": [
        {
          "indexed": false,
          "internalType": "uint256",
          "name": "_fromTokenId",
          "type": "uint256"
        },
        {
          "indexed": false,
          "internalType": "uint256",
          "name": "_toTokenId",
          "type": "uint256"
        }
      ],
      "name": "BatchMetadataUpdate",
      "type": "event"
    },
    {
      "anonymous": false,
      "inputs": [
        {
          "indexed": false,
          "internalType": "uint256",
          "name": "_tokenId",
          "type": "uint256"
        }
      ],
      "name": "MetadataUpdate",
      "type": "event"
    },
    {
      "anonymous": false,
      "inputs": [
        {
          "indexed": true,
          "internalType": "address",
          "name": "previousOwner",
          "type": "address"
        },
        {
          "indexed": true,
          "internalType": "address",
          "name": "newOwner",
          "type": "address"
        }
      ],
      "name": "OwnershipTransferred",
      "type": "event"
    },
    {
      "anonymous": false,
      "inputs": [
        {
          "indexed": true,
          "internalType": "address",
          "name": "from",
          "type": "address"
        },
        {
          "indexed": true,
          "internalType": "address",
          "name": "to",
          "type": "address"
        },
        {
          "indexed": true,
          "internalType": "uint256",
          "name": "tokenId",
          "type": "uint256"
        }
      ],
      "name": "Transfer",
      "type": "event"
    },
    {
      "inputs": [
        {
          "internalType": "address",
          "name": "to",
          "type": "address"
        },
        {
          "internalType": "uint256",
          "name": "tokenId",
          "type": "uint256"
        }
      ],
      "name": "approve",
      "outputs": [],
      "stateMutability": "nonpayable",
      "type": "function"
    },
    {
      "inputs": [
        {
          "internalType": "address",
          "name": "owner",
          "type": "address"
        }
      ],
      "name": "balanceOf",
      "outputs": [
        {
          "internalType": "uint256",
          "name": "",
          "type": "uint256"
        }
      ],
      "stateMutability": "view",
      "type": "function"
    },
    {
      "inputs": [
        {
          "internalType": "uint256",
          "name": "",
          "type": "uint256"
        }
      ],
      "name": "baseURIs",
      "outputs": [
        {
          "internalType": "string",
          "name": "",
          "type": "string"
        }
      ],
      "stateMutability": "view",
      "type": "function"
    },
    {
      "inputs": [
        {
          "internalType": "uint256",
          "name": "tokenId",
          "type": "uint256"
        }
      ],
      "name": "burn",
      "outputs": [],
      "stateMutability": "nonpayable",
      "type": "function"
    },
    {
      "inputs": [
        {
          "internalType": "uint256",
          "name": "tokenId",
          "type": "uint256"
        }
      ],
      "name": "getApproved",
      "outputs": [
        {
          "internalType": "address",
          "name": "",
          "type": "address"
        }
      ],
      "stateMutability": "view",
      "type": "function"
    },
    {
      "inputs": [
        {
          "internalType": "uint256",
          "name": "tokenId",
          "type": "uint256"
        }
      ],
      "name": "getTokenMenu",
      "outputs": [
        {
          "internalType": "uint256",
          "name": "",
          "type": "uint256"
        }
      ],
      "stateMutability": "view",
      "type": "function"
    },
    {
      "inputs": [
        {
          "internalType": "address",
          "name": "user",
          "type": "address"
        },
        {
          "internalType": "uint256",
          "name": "menuId",
          "type": "uint256"
        }
      ],
      "name": "getUserMenuNFTCount",
      "outputs": [
        {
          "internalType": "uint256",
          "name": "",
          "type": "uint256"
        }
      ],
      "stateMutability": "view",
      "type": "function"
    },
    {
      "inputs": [
        {
          "internalType": "address",
          "name": "user",
          "type": "address"
        },
        {
          "internalType": "uint256",
          "name": "menuId",
          "type": "uint256"
        }
      ],
      "name": "getUserMenuNFTs",
      "outputs": [
        {
          "internalType": "uint256[]",
          "name": "",
          "type": "uint256[]"
        }
      ],
      "stateMutability": "view",
      "type": "function"
    },
    {
      "inputs": [
        {
          "internalType": "address",
          "name": "owner",
          "type": "address"
        },
        {
          "internalType": "address",
          "name": "operator",
          "type": "address"
        }
      ],
      "name": "isApprovedForAll",
      "outputs": [
        {
          "internalType": "bool",
          "name": "",
          "type": "bool"
        }
      ],
      "stateMutability": "view",
      "type": "function"
    },
    {
      "inputs": [
        {
          "internalType": "uint256",
          "name": "",
          "type": "uint256"
        }
      ],
      "name": "menuCounters",
      "outputs": [
        {
          "internalType": "uint256",
          "name": "",
          "type": "uint256"
        }
      ],
      "stateMutability": "view",
      "type": "function"
    },
    {
      "inputs": [
        {
          "internalType": "address",
          "name": "to",
          "type": "address"
        },
        {
          "internalType": "uint256",
          "name": "menuId",
          "type": "uint256"
        }
      ],
      "name": "mint",
      "outputs": [
        {
          "internalType": "uint256",
          "name": "",
          "type": "uint256"
        }
      ],
      "stateMutability": "nonpayable",
      "type": "function"
    },
    {
      "inputs": [],
      "name": "name",
      "outputs": [
        {
          "internalType": "string",
          "name": "",
          "type": "string"
        }
      ],
      "stateMutability": "view",
      "type": "function"
    },
    {
      "inputs": [],
      "name": "owner",
      "outputs": [
        {
          "internalType": "address",
          "name": "",
          "type": "address"
        }
      ],
      "stateMutability": "view",
      "type": "function"
    },
    {
      "inputs": [
        {
          "internalType": "uint256",
          "name": "tokenId",
          "type": "uint256"
        }
      ],
      "name": "ownerOf",
      "outputs": [
        {
          "internalType": "address",
          "name": "",
          "type": "address"
        }
      ],
      "stateMutability": "view",
      "type": "function"
    },
    {
      "inputs": [],
      "name": "renounceOwnership",
      "outputs": [],
      "stateMutability": "nonpayable",
      "type": "function"
    },
    {
      "inputs": [
        {
          "internalType": "address",
          "name": "from",
          "type": "address"
        },
        {
          "internalType": "address",
          "name": "to",
          "type": "address"
        },
        {
          "internalType": "uint256",
          "name": "tokenId",
          "type": "uint256"
        }
      ],
      "name": "safeTransferFrom",
      "outputs": [],
      "stateMutability": "nonpayable",
      "type": "function"
    },
    {
      "inputs": [
        {
          "internalType": "address",
          "name": "from",
          "type": "address"
        },
        {
          "internalType": "address",
          "name": "to",
          "type": "address"
        },
        {
          "internalType": "uint256",
          "name": "tokenId",
          "type": "uint256"
        },
        {
          "internalType": "bytes",
          "name": "data",
          "type": "bytes"
        }
      ],
      "name": "safeTransferFrom",
      "outputs": [],
      "stateMutability": "nonpayable",
      "type": "function"
    },
    {
      "inputs": [
        {
          "internalType": "address",
          "name": "operator",
          "type": "address"
        },
        {
          "internalType": "bool",
          "name": "approved",
          "type": "bool"
        }
      ],
      "name": "setApprovalForAll",
      "outputs": [],
      "stateMutability": "nonpayable",
      "type": "function"
    },
    {
      "inputs": [
        {
          "internalType": "uint256",
          "name": "menuId",
          "type": "uint256"
        },
        {
          "internalType": "string",
          "name": "baseURI",
          "type": "string"
        }
      ],
      "name": "setBaseURI",
      "outputs": [],
      "stateMutability": "nonpayable",
      "type": "function"
    },
    {
      "inputs": [
        {
          "internalType": "bytes4",
          "name": "interfaceId",
          "type": "bytes4"
        }
      ],
      "name": "supportsInterface",
      "outputs": [
        {
          "internalType": "bool",
          "name": "",
          "type": "bool"
        }
      ],
      "stateMutability": "view",
      "type": "function"
    },
    {
      "inputs": [],
      "name": "symbol",
      "outputs": [
        {
          "internalType": "string",
          "name": "",
          "type": "string"
        }
      ],
      "stateMutability": "view",
      "type": "function"
    },
    {
      "inputs": [
        {
          "internalType": "uint256",
          "name": "index",
          "type": "uint256"
        }
      ],
      "name": "tokenByIndex",
      "outputs": [
        {
          "internalType": "uint256",
          "name": "",
          "type": "uint256"
        }
      ],
      "stateMutability": "view",
      "type": "function"
    },
    {
      "inputs": [
        {
          "internalType": "uint256",
          "name": "",
          "type": "uint256"
        }
      ],
      "name": "tokenMenus",
      "outputs": [
        {
          "internalType": "uint256",
          "name": "",
          "type": "uint256"
        }
      ],
      "stateMutability": "view",
      "type": "function"
    },
    {
      "inputs": [
        {
          "internalType": "address",
          "name": "owner",
          "type": "address"
        },
        {
          "internalType": "uint256",
          "name": "index",
          "type": "uint256"
        }
      ],
      "name": "tokenOfOwnerByIndex",
      "outputs": [
        {
          "internalType": "uint256",
          "name": "",
          "type": "uint256"
        }
      ],
      "stateMutability": "view",
      "type": "function"
    },
    {
      "inputs": [
        {
          "internalType": "uint256",
          "name": "tokenId",
          "type": "uint256"
        }
      ],
      "name": "tokenURI",
      "outputs": [
        {
          "internalType": "string",
          "name": "",
          "type": "string"
        }
      ],
      "stateMutability": "view",
      "type": "function"
    },
    {
      "inputs": [],
      "name": "totalSupply",
      "outputs": [
        {
          "internalType": "uint256",
          "name": "",
          "type": "uint256"
        }
      ],
      "stateMutability": "view",
      "type": "function"
    },
    {
      "inputs": [
        {
          "internalType": "address",
          "name": "from",
          "type": "address"
        },
        {
          "internalType": "address",
          "name": "to",
          "type": "address"
        },
        {
          "internalType": "uint256",
          "name": "tokenId",
          "type": "uint256"
        }
      ],
      "name": "transferFrom",
      "outputs": [],
      "stateMutability": "nonpayable",
      "type": "function"
    },
    {
      "inputs": [
        {
          "internalType": "address",
          "name": "newOwner",
          "type": "address"
        }
      ],
      "name": "transferOwnership",
      "outputs": [],
      "stateMutability": "nonpayable",
      "type": "function"
    }
  ],
  "bytecode": "0x608060405234801561001057600080fd5b50336040518060400160405280600981526020016810dbd999995953919560ba1b81525060405180604001604052806006815260200165434f4646454560d01b815250816000908161006291906101a5565b50600161006f82826101a5565b5050506001600160a01b0381166100a057604051631e4fbdf760e01b81526000600482015260240160405180910390fd5b6100a9816100b4565b506001600c55610263565b600b80546001600160a01b038381166001600160a01b0319831681179093556040519116919082907f8be0079c531659141344cd1fd0a4f28419497f9722a3daafe3b4186f6b6457e090600090a35050565b634e487b7160e01b600052604160045260246000fd5b600181811c9082168061013057607f821691505b60208210810361015057634e487b7160e01b600052602260045260246000fd5b50919050565b601f8211156101a057806000526020600020601f840160051c8101602085101561017d5750805b601f840160051c820191505b8181101561019d5760008155600101610189565b50505b505050565b81516001600160401b038111156101be576101be610106565b6101d2816101cc845461011c565b84610156565b6020601f82116001811461020657600083156101ee5750848201515b600019600385901b1c1916600184901b17845561019d565b600084815260208120601f198516915b828110156102365787850151825560209485019460019092019101610216565b50848210156102545786840151600019600387901b60f8161c191681555b50505050600190811b01905550565b611f11806102726000396000f3fe608060405234801561001057600080fd5b50600436106101c45760003560e01c80634f6ccce7116100f9578063a22cb46511610097578063b88d4fde11610071578063b88d4fde146103d4578063c87b56dd146103e7578063e985e9c5146103fa578063f2fde38b1461040d57600080fd5b8063a22cb4651461038e578063aafe32ef146103a1578063ab506246146103c157600080fd5b8063715018a6116100d3578063715018a61461035a5780638da5cb5b14610362578063915642061461037357806395d89b411461038657600080fd5b80634f6ccce7146103215780636352211e1461033457806370a082311461034757600080fd5b806323b872dd1161016657806338e16dec1161014057806338e16dec146102d557806340c10f19146102e857806342842e0e146102fb57806342966c681461030e57600080fd5b806323b872dd1461029c5780632f745c59146102af57806333cfcb9f146102c257600080fd5b8063095ea7b3116101a2578063095ea7b3146102315780630e511bde1461024657806311e14c351461027457806318160ddd1461029457600080fd5b806301ffc9a7146101c957806306fdde03146101f1578063081812fc14610206575b600080fd5b6101dc6101d7366004611903565b610420565b60405190151581526020015b60405180910390f35b6101f9610431565b6040516101e89190611970565b610219610214366004611983565b6104c3565b6040516001600160a01b0390911681526020016101e8565b61024461023f3660046119b8565b6104ec565b005b610266610254366004611983565b600e6020526000908152604090205481565b6040519081526020016101e8565b6102876102823660046119b8565b6104fb565b6040516101e891906119e2565b600954610266565b6102446102aa366004611a25565b610654565b6102666102bd3660046119b8565b6106e4565b6102446102d0366004611af2565b610749565b6102666102e3366004611983565b61076e565b6102666102f63660046119b8565b6107b5565b610244610309366004611a25565b610901565b61024461031c366004611983565b61091c565b61026661032f366004611983565b610930565b610219610342366004611983565b610989565b610266610355366004611b4d565b610994565b6102446109dc565b600b546001600160a01b0316610219565b6101f9610381366004611983565b6109f0565b6101f9610a8a565b61024461039c366004611b68565b610a99565b6102666103af366004611983565b600f6020526000908152604090205481565b6102666103cf3660046119b8565b610aa4565b6102446103e2366004611ba4565b610b04565b6101f96103f5366004611983565b610b1c565b6101dc610408366004611c20565b610b27565b61024461041b366004611b4d565b610b55565b600061042b82610b90565b92915050565b60606000805461044090611c53565b80601f016020809104026020016040519081016040528092919081815260200182805461046c90611c53565b80156104b95780601f1061048e576101008083540402835291602001916104b9565b820191906000526020600020905b81548152906001019060200180831161049c57829003601f168201915b5050505050905090565b60006104ce82610bb5565b506000828152600460205260409020546001600160a01b031661042b565b6104f7828233610bee565b5050565b6060600061050884610994565b905060008167ffffffffffffffff81111561052557610525611a62565b60405190808252806020026020018201604052801561054e578160200160208202803683370190505b5090506000805b838110156105b757600061056988836106e4565b6000818152600e60205260409020549091508790036105ae578084848151811061059557610595611c8d565b6020908102919091010152826105aa81611cb9565b9350505b50600101610555565b5060008167ffffffffffffffff8111156105d3576105d3611a62565b6040519080825280602002602001820160405280156105fc578160200160208202803683370190505b50905060005b828110156106495783818151811061061c5761061c611c8d565b602002602001015182828151811061063657610636611c8d565b6020908102919091010152600101610602565b509695505050505050565b6001600160a01b03821661068357604051633250574960e11b8152600060048201526024015b60405180910390fd5b6000610690838333610bfb565b9050836001600160a01b0316816001600160a01b0316146106de576040516364283d7b60e01b81526001600160a01b038086166004830152602482018490528216604482015260640161067a565b50505050565b60006106ef83610994565b82106107205760405163295f44f760e21b81526001600160a01b03841660048201526024810183905260440161067a565b506001600160a01b03919091166000908152600760209081526040808320938352929052205490565b610751610c10565b6000828152600d602052604090206107698282611d19565b505050565b6000818152600260205260408120546001600160a01b03166107a257604051626f708760e21b815260040160405180910390fd5b506000908152600e602052604090205490565b60006107bf610c10565b600c8054600091826107d083611cb9565b909155506000818152600e60209081526040808320879055868352600f909152812080549293509061080183611cb9565b91905055506108108482610c3d565b6000838152600d60205260408120805461082990611c53565b80601f016020809104026020016040519081016040528092919081815260200182805461085590611c53565b80156108a25780601f10610877576101008083540402835291602001916108a2565b820191906000526020600020905b81548152906001019060200180831161088557829003601f168201915b505050505090506000815111156108f9576108f982826108d4600f600089815260200190815260200160002054610c57565b6040516020016108e5929190611dd8565b604051602081830303815290604052610d58565b509392505050565b61076983838360405180602001604052806000815250610b04565b610924610c10565b61092d81610da8565b50565b600061093b60095490565b82106109645760405163295f44f760e21b8152600060048201526024810183905260440161067a565b6009828154811061097757610977611c8d565b90600052602060002001549050919050565b600061042b82610bb5565b60006001600160a01b0382166109c0576040516322718ad960e21b81526000600482015260240161067a565b506001600160a01b031660009081526003602052604090205490565b6109e4610c10565b6109ee6000610de3565b565b600d6020526000908152604090208054610a0990611c53565b80601f0160208091040260200160405190810160405280929190818152602001828054610a3590611c53565b8015610a825780601f10610a5757610100808354040283529160200191610a82565b820191906000526020600020905b815481529060010190602001808311610a6557829003601f168201915b505050505081565b60606001805461044090611c53565b6104f7338383610e35565b60008080610ab185610994565b905060005b81811015610afa576000610aca87836106e4565b6000818152600e6020526040902054909150869003610af15783610aed81611cb9565b9450505b50600101610ab6565b5090949350505050565b610b0f848484610654565b6106de3385858585610ed4565b606061042b82610fff565b6001600160a01b03918216600090815260056020908152604080832093909416825291909152205460ff1690565b610b5d610c10565b6001600160a01b038116610b8757604051631e4fbdf760e01b81526000600482015260240161067a565b61092d81610de3565b60006001600160e01b0319821663780e9d6360e01b148061042b575061042b82611108565b6000818152600260205260408120546001600160a01b03168061042b57604051637e27328960e01b81526004810184905260240161067a565b610769838383600161112d565b6000610c08848484611233565b949350505050565b600b546001600160a01b031633146109ee5760405163118cdaa760e01b815233600482015260240161067a565b6104f7828260405180602001604052806000815250611300565b606081600003610c7e5750506040805180820190915260018152600360fc1b602082015290565b8160005b8115610ca85780610c9281611cb9565b9150610ca19050600a83611e1d565b9150610c82565b60008167ffffffffffffffff811115610cc357610cc3611a62565b6040519080825280601f01601f191660200182016040528015610ced576020820181803683370190505b5090505b8415610c0857610d02600183611e31565b9150610d0f600a86611e44565b610d1a906030611e58565b60f81b818381518110610d2f57610d2f611c8d565b60200101906001600160f81b031916908160001a905350610d51600a86611e1d565b9450610cf1565b6000828152600660205260409020610d708282611d19565b506040518281527ff8e1a15aba9398e019f0b49df1a4fde98ee17ae345cb5f6b5e2c27f5033e8ce79060200160405180910390a15050565b6000610db76000836000610bfb565b90506001600160a01b0381166104f757604051637e27328960e01b81526004810183905260240161067a565b600b80546001600160a01b038381166001600160a01b0319831681179093556040519116919082907f8be0079c531659141344cd1fd0a4f28419497f9722a3daafe3b4186f6b6457e090600090a35050565b6001600160a01b038216610e6757604051630b61174360e31b81526001600160a01b038316600482015260240161067a565b6001600160a01b03838116600081815260056020908152604080832094871680845294825291829020805460ff191686151590811790915591519182527f17307eab39ab6107e8899845ad3d59bd9653f200f220920489ca2b5937696c31910160405180910390a3505050565b6001600160a01b0383163b15610ff857604051630a85bd0160e11b81526001600160a01b0384169063150b7a0290610f16908890889087908790600401611e6b565b6020604051808303816000875af1925050508015610f51575060408051601f3d908101601f19168201909252610f4e91810190611ea8565b60015b610fba573d808015610f7f576040519150601f19603f3d011682016040523d82523d6000602084013e610f84565b606091505b508051600003610fb257604051633250574960e11b81526001600160a01b038516600482015260240161067a565b805181602001fd5b6001600160e01b03198116630a85bd0160e11b14610ff657604051633250574960e11b81526001600160a01b038516600482015260240161067a565b505b5050505050565b606061100a82610bb5565b506000828152600660205260408120805461102490611c53565b80601f016020809104026020016040519081016040528092919081815260200182805461105090611c53565b801561109d5780601f106110725761010080835404028352916020019161109d565b820191906000526020600020905b81548152906001019060200180831161108057829003601f168201915b5050505050905060006110bb60408051602081019091526000815290565b905080516000036110cd575092915050565b8151156110ff5780826040516020016110e7929190611dd8565b60405160208183030381529060405292505050919050565b610c0884611318565b60006001600160e01b03198216632483248360e11b148061042b575061042b8261138d565b808061114157506001600160a01b03821615155b1561120357600061115184610bb5565b90506001600160a01b0383161580159061117d5750826001600160a01b0316816001600160a01b031614155b8015611190575061118e8184610b27565b155b156111b95760405163a9fbf51f60e01b81526001600160a01b038416600482015260240161067a565b81156112015783856001600160a01b0316826001600160a01b03167f8c5be1e5ebec7d5bd14f71427d1e84f3dd0314c0f7b2291e5b200ac8c7c3b92560405160405180910390a45b505b5050600090815260046020526040902080546001600160a01b0319166001600160a01b0392909216919091179055565b6000806112418585856113dd565b90506001600160a01b03811661129e5761129984600980546000838152600a60205260408120829055600182018355919091527f6e1540171b6c0c960b71a7020d9f60077f6af931a8bbf590da0223dacf75c7af0155565b6112c1565b846001600160a01b0316816001600160a01b0316146112c1576112c181856114d6565b6001600160a01b0385166112dd576112d884611557565b610c08565b846001600160a01b0316816001600160a01b031614610c0857610c088585611606565b61130a8383611656565b610769336000858585610ed4565b606061132382610bb5565b50600061133b60408051602081019091526000815290565b9050600081511161135b5760405180602001604052806000815250611386565b80611365846116bb565b604051602001611376929190611dd8565b6040516020818303038152906040525b9392505050565b60006001600160e01b031982166380ac58cd60e01b14806113be57506001600160e01b03198216635b5e139f60e01b145b8061042b57506301ffc9a760e01b6001600160e01b031983161461042b565b6000828152600260205260408120546001600160a01b039081169083161561140a5761140a81848661174e565b6001600160a01b038116156114485761142760008560008061112d565b6001600160a01b038116600090815260036020526040902080546000190190555b6001600160a01b03851615611477576001600160a01b0385166000908152600360205260409020805460010190555b60008481526002602052604080822080546001600160a01b0319166001600160a01b0389811691821790925591518793918516917fddf252ad1be2c89b69c2b068fc378daa952ba7f163c4a11628f55a4df523b3ef91a4949350505050565b60006114e183610994565b6000838152600860209081526040808320546001600160a01b038816845260079092529091209192509081831461153857600083815260208281526040808320548584528184208190558352600890915290208290555b6000938452600860209081526040808620869055938552525081205550565b60095460009061156990600190611e31565b6000838152600a60205260408120546009805493945090928490811061159157611591611c8d565b9060005260206000200154905080600983815481106115b2576115b2611c8d565b6000918252602080832090910192909255828152600a909152604080822084905585825281205560098054806115ea576115ea611ec5565b6001900381819060005260206000200160009055905550505050565b6000600161161384610994565b61161d9190611e31565b6001600160a01b039093166000908152600760209081526040808320868452825280832085905593825260089052919091209190915550565b6001600160a01b03821661168057604051633250574960e11b81526000600482015260240161067a565b600061168e83836000610bfb565b90506001600160a01b03811615610769576040516339e3563760e11b81526000600482015260240161067a565b606060006116c8836117b2565b600101905060008167ffffffffffffffff8111156116e8576116e8611a62565b6040519080825280601f01601f191660200182016040528015611712576020820181803683370190505b5090508181016020015b600019016f181899199a1a9b1b9c1cb0b131b232b360811b600a86061a8153600a850494508461171c57509392505050565b61175983838361188a565b610769576001600160a01b03831661178757604051637e27328960e01b81526004810182905260240161067a565b60405163177e802f60e01b81526001600160a01b03831660048201526024810182905260440161067a565b60008072184f03e93ff9f4daa797ed6e38ed64bf6a1f0160401b83106117f15772184f03e93ff9f4daa797ed6e38ed64bf6a1f0160401b830492506040015b6d04ee2d6d415b85acef8100000000831061181d576d04ee2d6d415b85acef8100000000830492506020015b662386f26fc10000831061183b57662386f26fc10000830492506010015b6305f5e1008310611853576305f5e100830492506008015b612710831061186757612710830492506004015b60648310611879576064830492506002015b600a831061042b5760010192915050565b60006001600160a01b03831615801590610c085750826001600160a01b0316846001600160a01b031614806118c457506118c48484610b27565b80610c085750506000908152600460205260409020546001600160a01b03908116911614919050565b6001600160e01b03198116811461092d57600080fd5b60006020828403121561191557600080fd5b8135611386816118ed565b60005b8381101561193b578181015183820152602001611923565b50506000910152565b6000815180845261195c816020860160208601611920565b601f01601f19169290920160200192915050565b6020815260006113866020830184611944565b60006020828403121561199557600080fd5b5035919050565b80356001600160a01b03811681146119b357600080fd5b919050565b600080604083850312156119cb57600080fd5b6119d48361199c565b946020939093013593505050565b602080825282518282018190526000918401906040840190835b81811015611a1a5783518352602093840193909201916001016119fc565b509095945050505050565b600080600060608486031215611a3a57600080fd5b611a438461199c565b9250611a516020850161199c565b929592945050506040919091013590565b634e487b7160e01b600052604160045260246000fd5b60008067ffffffffffffffff841115611a9357611a93611a62565b50604051601f19601f85018116603f0116810181811067ffffffffffffffff82111715611ac257611ac2611a62565b604052838152905080828401851015611ada57600080fd5b83836020830137600060208583010152509392505050565b60008060408385031215611b0557600080fd5b82359150602083013567ffffffffffffffff811115611b2357600080fd5b8301601f81018513611b3457600080fd5b611b4385823560208401611a78565b9150509250929050565b600060208284031215611b5f57600080fd5b6113868261199c565b60008060408385031215611b7b57600080fd5b611b848361199c565b915060208301358015158114611b9957600080fd5b809150509250929050565b60008060008060808587031215611bba57600080fd5b611bc38561199c565b9350611bd16020860161199c565b925060408501359150606085013567ffffffffffffffff811115611bf457600080fd5b8501601f81018713611c0557600080fd5b611c1487823560208401611a78565b91505092959194509250565b60008060408385031215611c3357600080fd5b611c3c8361199c565b9150611c4a6020840161199c565b90509250929050565b600181811c90821680611c6757607f821691505b602082108103611c8757634e487b7160e01b600052602260045260246000fd5b50919050565b634e487b7160e01b600052603260045260246000fd5b634e487b7160e01b600052601160045260246000fd5b600060018201611ccb57611ccb611ca3565b5060010190565b601f82111561076957806000526020600020601f840160051c81016020851015611cf95750805b601f840160051c820191505b81811015610ff85760008155600101611d05565b815167ffffffffffffffff811115611d3357611d33611a62565b611d4781611d418454611c53565b84611cd2565b6020601f821160018114611d7b5760008315611d635750848201515b600019600385901b1c1916600184901b178455610ff8565b600084815260208120601f198516915b82811015611dab5787850151825560209485019460019092019101611d8b565b5084821015611dc95786840151600019600387901b60f8161c191681555b50505050600190811b01905550565b60008351611dea818460208801611920565b835190830190611dfe818360208801611920565b01949350505050565b634e487b7160e01b600052601260045260246000fd5b600082611e2c57611e2c611e07565b500490565b8181038181111561042b5761042b611ca3565b600082611e5357611e53611e07565b500690565b8082018082111561042b5761042b611ca3565b6001600160a01b0385811682528416602082015260408101839052608060608201819052600090611e9e90830184611944565b9695505050505050565b600060208284031215611eba57600080fd5b8151611386816118ed565b634e487b7160e01b600052603160045260246000fdfea2646970667358221220794ecdc2dab8a14319c2d16424cfbf0db04b0e9c22f847a624bebf65a359afd964736f6c634300081c0033",
  "linkReferences": {},
  "deployedLinkReferences": {}
}