{
  "_format": "hh-sol-artifact-1",
  "contractName": "DripDropCafe",
  "sourceName": "contracts/DripDropCafe.sol",
  "abi": [
    {
      "inputs": [
        {
          "internalType": "address",
          "name": "_payment",
          "type": "address"
        }
      ],
      "stateMutability": "nonpayable",
      "type": "constructor"
    },
    {
      "inputs": [],
      "name": "IncorrectGrid",
      "type": "error"
    },
    {
      "inputs": [],
      "name": "InvalidIngredientID",
      "type": "error"
    },
    {
      "inputs": [],
      "name": "MenuPriceNotSet",
      "type": "error"
    },
    {
      "inputs": [],
      "name": "NotOwner",
      "type": "error"
    },
    {
      "inputs": [
        {
          "internalType": "address",
          "name": "owner",
          "type": "address"
        }
      ],
      "name": "OwnableInvalidOwner",
      "type": "error"
    },
    {
      "inputs": [
        {
          "internalType": "address",
          "name": "account",
          "type": "address"
        }
      ],
      "name": "OwnableUnauthorizedAccount",
      "type": "error"
    },
    {
      "inputs": [],
      "name": "PaymentFailed",
      "type": "error"
    },
    {
      "inputs": [],
      "name": "RecipeNotSet",
      "type": "error"
    },
    {
      "inputs": [],
      "name": "ReentrancyGuardReentrantCall",
      "type": "error"
    },
    {
      "inputs": [],
      "name": "TransferFailed",
      "type": "error"
    },
    {
      "anonymous": false,
      "inputs": [
        {
          "indexed": true,
          "internalType": "address",
          "name": "user",
          "type": "address"
        },
        {
          "indexed": true,
          "internalType": "uint256",
          "name": "menuId",
          "type": "uint256"
        },
        {
          "indexed": true,
          "internalType": "uint256",
          "name": "tokenId",
          "type": "uint256"
        }
      ],
      "name": "Crafted",
      "type": "event"
    },
    {
      "anonymous": false,
      "inputs": [
        {
          "indexed": true,
          "internalType": "address",
          "name": "user",
          "type": "address"
        },
        {
          "indexed": true,
          "internalType": "uint256",
          "name": "menuId",
          "type": "uint256"
        },
        {
          "indexed": false,
          "internalType": "uint8",
          "name": "ingredientId",
          "type": "uint8"
        }
      ],
      "name": "MenuOrdered",
      "type": "event"
    },
    {
      "anonymous": false,
      "inputs": [
        {
          "indexed": true,
          "internalType": "uint256",
          "name": "menuId",
          "type": "uint256"
        },
        {
          "indexed": false,
          "internalType": "uint256",
          "name": "price",
          "type": "uint256"
        }
      ],
      "name": "MenuPriceSet",
      "type": "event"
    },
    {
      "anonymous": false,
      "inputs": [
        {
          "indexed": true,
          "internalType": "address",
          "name": "previousOwner",
          "type": "address"
        },
        {
          "indexed": true,
          "internalType": "address",
          "name": "newOwner",
          "type": "address"
        }
      ],
      "name": "OwnershipTransferred",
      "type": "event"
    },
    {
      "anonymous": false,
      "inputs": [
        {
          "indexed": true,
          "internalType": "uint256",
          "name": "menuId",
          "type": "uint256"
        }
      ],
      "name": "RecipeSet",
      "type": "event"
    },
    {
      "anonymous": false,
      "inputs": [
        {
          "indexed": true,
          "internalType": "address",
          "name": "user",
          "type": "address"
        },
        {
          "indexed": true,
          "internalType": "uint256",
          "name": "tokenId",
          "type": "uint256"
        }
      ],
      "name": "Redeemed",
      "type": "event"
    },
    {
      "inputs": [],
      "name": "EMPTY",
      "outputs": [
        {
          "internalType": "uint8",
          "name": "",
          "type": "uint8"
        }
      ],
      "stateMutability": "view",
      "type": "function"
    },
    {
      "inputs": [
        {
          "internalType": "uint256",
          "name": "",
          "type": "uint256"
        }
      ],
      "name": "baseURIs",
      "outputs": [
        {
          "internalType": "string",
          "name": "",
          "type": "string"
        }
      ],
      "stateMutability": "view",
      "type": "function"
    },
    {
      "inputs": [
        {
          "internalType": "uint256",
          "name": "tokenId",
          "type": "uint256"
        }
      ],
      "name": "burnCoffeeNFT",
      "outputs": [],
      "stateMutability": "nonpayable",
      "type": "function"
    },
    {
      "inputs": [],
      "name": "coffeeNFT",
      "outputs": [
        {
          "internalType": "contract CoffeeNFT",
          "name": "",
          "type": "address"
        }
      ],
      "stateMutability": "view",
      "type": "function"
    },
    {
      "inputs": [
        {
          "internalType": "uint256",
          "name": "menuId",
          "type": "uint256"
        },
        {
          "internalType": "uint8[9]",
          "name": "pattern",
          "type": "uint8[9]"
        }
      ],
      "name": "craftCoffee",
      "outputs": [],
      "stateMutability": "nonpayable",
      "type": "function"
    },
    {
      "inputs": [
        {
          "internalType": "uint8[9]",
          "name": "pattern",
          "type": "uint8[9]"
        }
      ],
      "name": "findMatchingRecipe",
      "outputs": [
        {
          "internalType": "uint256",
          "name": "",
          "type": "uint256"
        }
      ],
      "stateMutability": "view",
      "type": "function"
    },
    {
      "inputs": [],
      "name": "getAllMenus",
      "outputs": [
        {
          "internalType": "uint256[]",
          "name": "menuIds",
          "type": "uint256[]"
        },
        {
          "internalType": "uint256[]",
          "name": "prices",
          "type": "uint256[]"
        },
        {
          "internalType": "bool[]",
          "name": "hasRecipes",
          "type": "bool[]"
        },
        {
          "internalType": "string[]",
          "name": "baseURIList",
          "type": "string[]"
        }
      ],
      "stateMutability": "view",
      "type": "function"
    },
    {
      "inputs": [
        {
          "internalType": "uint256",
          "name": "id",
          "type": "uint256"
        }
      ],
      "name": "getIngredientName",
      "outputs": [
        {
          "internalType": "string",
          "name": "",
          "type": "string"
        }
      ],
      "stateMutability": "view",
      "type": "function"
    },
    {
      "inputs": [
        {
          "internalType": "uint256",
          "name": "menuId",
          "type": "uint256"
        }
      ],
      "name": "getMenuBaseURI",
      "outputs": [
        {
          "internalType": "string",
          "name": "",
          "type": "string"
        }
      ],
      "stateMutability": "view",
      "type": "function"
    },
    {
      "inputs": [
        {
          "internalType": "uint256",
          "name": "menuId",
          "type": "uint256"
        }
      ],
      "name": "getMenuInfo",
      "outputs": [
        {
          "internalType": "uint256",
          "name": "price",
          "type": "uint256"
        },
        {
          "internalType": "bool",
          "name": "hasRecipe",
          "type": "bool"
        },
        {
          "internalType": "string",
          "name": "baseURI",
          "type": "string"
        },
        {
          "internalType": "uint8[9]",
          "name": "pattern",
          "type": "uint8[9]"
        }
      ],
      "stateMutability": "view",
      "type": "function"
    },
    {
      "inputs": [
        {
          "internalType": "uint256",
          "name": "menuId",
          "type": "uint256"
        }
      ],
      "name": "getMenuPrice",
      "outputs": [
        {
          "internalType": "uint256",
          "name": "",
          "type": "uint256"
        }
      ],
      "stateMutability": "view",
      "type": "function"
    },
    {
      "inputs": [],
      "name": "getMenusWithRecipes",
      "outputs": [
        {
          "internalType": "uint256[]",
          "name": "",
          "type": "uint256[]"
        }
      ],
      "stateMutability": "view",
      "type": "function"
    },
    {
      "inputs": [
        {
          "internalType": "uint256",
          "name": "menuId",
          "type": "uint256"
        }
      ],
      "name": "getRecipeHash",
      "outputs": [
        {
          "internalType": "bytes32",
          "name": "",
          "type": "bytes32"
        }
      ],
      "stateMutability": "view",
      "type": "function"
    },
    {
      "inputs": [
        {
          "internalType": "uint256",
          "name": "menuId",
          "type": "uint256"
        }
      ],
      "name": "getRecipePattern",
      "outputs": [
        {
          "internalType": "uint8[9]",
          "name": "",
          "type": "uint8[9]"
        }
      ],
      "stateMutability": "view",
      "type": "function"
    },
    {
      "inputs": [
        {
          "internalType": "address",
          "name": "user",
          "type": "address"
        },
        {
          "internalType": "uint256",
          "name": "menuId",
          "type": "uint256"
        }
      ],
      "name": "getUserMenuNFTCount",
      "outputs": [
        {
          "internalType": "uint256",
          "name": "",
          "type": "uint256"
        }
      ],
      "stateMutability": "view",
      "type": "function"
    },
    {
      "inputs": [
        {
          "internalType": "address",
          "name": "user",
          "type": "address"
        },
        {
          "internalType": "uint256",
          "name": "menuId",
          "type": "uint256"
        }
      ],
      "name": "getUserMenuNFTs",
      "outputs": [
        {
          "internalType": "uint256[]",
          "name": "",
          "type": "uint256[]"
        }
      ],
      "stateMutability": "view",
      "type": "function"
    },
    {
      "inputs": [],
      "name": "getValidIngredients",
      "outputs": [
        {
          "internalType": "uint256[]",
          "name": "",
          "type": "uint256[]"
        }
      ],
      "stateMutability": "view",
      "type": "function"
    },
    {
      "inputs": [
        {
          "internalType": "address",
          "name": "user",
          "type": "address"
        },
        {
          "internalType": "uint8[9]",
          "name": "pattern",
          "type": "uint8[9]"
        }
      ],
      "name": "hasRequiredIngredients",
      "outputs": [
        {
          "internalType": "bool",
          "name": "",
          "type": "bool"
        }
      ],
      "stateMutability": "view",
      "type": "function"
    },
    {
      "inputs": [],
      "name": "ingredient",
      "outputs": [
        {
          "internalType": "contract IngredientToken",
          "name": "",
          "type": "address"
        }
      ],
      "stateMutability": "view",
      "type": "function"
    },
    {
      "inputs": [
        {
          "internalType": "uint256",
          "name": "",
          "type": "uint256"
        }
      ],
      "name": "menuPrices",
      "outputs": [
        {
          "internalType": "uint256",
          "name": "",
          "type": "uint256"
        }
      ],
      "stateMutability": "view",
      "type": "function"
    },
    {
      "inputs": [
        {
          "internalType": "address",
          "name": "to",
          "type": "address"
        },
        {
          "internalType": "uint256",
          "name": "ingredientId",
          "type": "uint256"
        },
        {
          "internalType": "uint256",
          "name": "amount",
          "type": "uint256"
        }
      ],
      "name": "mintIngredientForDev",
      "outputs": [],
      "stateMutability": "nonpayable",
      "type": "function"
    },
    {
      "inputs": [
        {
          "internalType": "address",
          "name": "to",
          "type": "address"
        },
        {
          "internalType": "uint256[]",
          "name": "ingredientIds",
          "type": "uint256[]"
        },
        {
          "internalType": "uint256[]",
          "name": "amounts",
          "type": "uint256[]"
        }
      ],
      "name": "mintIngredientsForDev",
      "outputs": [],
      "stateMutability": "nonpayable",
      "type": "function"
    },
    {
      "inputs": [
        {
          "internalType": "uint256",
          "name": "menuId",
          "type": "uint256"
        }
      ],
      "name": "orderMenu",
      "outputs": [],
      "stateMutability": "nonpayable",
      "type": "function"
    },
    {
      "inputs": [],
      "name": "owner",
      "outputs": [
        {
          "internalType": "address",
          "name": "",
          "type": "address"
        }
      ],
      "stateMutability": "view",
      "type": "function"
    },
    {
      "inputs": [],
      "name": "payment",
      "outputs": [
        {
          "internalType": "contract MockPaymentToken",
          "name": "",
          "type": "address"
        }
      ],
      "stateMutability": "view",
      "type": "function"
    },
    {
      "inputs": [
        {
          "internalType": "uint256",
          "name": "",
          "type": "uint256"
        }
      ],
      "name": "recipes",
      "outputs": [
        {
          "internalType": "bytes32",
          "name": "hash",
          "type": "bytes32"
        }
      ],
      "stateMutability": "view",
      "type": "function"
    },
    {
      "inputs": [
        {
          "internalType": "uint256",
          "name": "tokenId",
          "type": "uint256"
        }
      ],
      "name": "redeemCoffee",
      "outputs": [],
      "stateMutability": "nonpayable",
      "type": "function"
    },
    {
      "inputs": [
        {
          "internalType": "uint256",
          "name": "id",
          "type": "uint256"
        },
        {
          "internalType": "string",
          "name": "name",
          "type": "string"
        }
      ],
      "name": "registerIngredient",
      "outputs": [],
      "stateMutability": "nonpayable",
      "type": "function"
    },
    {
      "inputs": [
        {
          "internalType": "uint256",
          "name": "id",
          "type": "uint256"
        }
      ],
      "name": "removeIngredient",
      "outputs": [],
      "stateMutability": "nonpayable",
      "type": "function"
    },
    {
      "inputs": [],
      "name": "renounceOwnership",
      "outputs": [],
      "stateMutability": "nonpayable",
      "type": "function"
    },
    {
      "inputs": [
        {
          "internalType": "uint256",
          "name": "menuId",
          "type": "uint256"
        },
        {
          "internalType": "uint256",
          "name": "price",
          "type": "uint256"
        }
      ],
      "name": "setMenuPrice",
      "outputs": [],
      "stateMutability": "nonpayable",
      "type": "function"
    },
    {
      "inputs": [
        {
          "internalType": "uint256",
          "name": "menuId",
          "type": "uint256"
        },
        {
          "internalType": "uint8[9]",
          "name": "pattern",
          "type": "uint8[9]"
        },
        {
          "internalType": "string",
          "name": "uriPrefix",
          "type": "string"
        }
      ],
      "name": "setRecipe",
      "outputs": [],
      "stateMutability": "nonpayable",
      "type": "function"
    },
    {
      "inputs": [
        {
          "internalType": "address",
          "name": "newOwner",
          "type": "address"
        }
      ],
      "name": "transferOwnership",
      "outputs": [],
      "stateMutability": "nonpayable",
      "type": "function"
    },
    {
      "inputs": [
        {
          "internalType": "uint256",
          "name": "menuId",
          "type": "uint256"
        },
        {
          "internalType": "uint8[9]",
          "name": "pattern",
          "type": "uint8[9]"
        }
      ],
      "name": "validatePattern",
      "outputs": [
        {
          "internalType": "bool",
          "name": "",
          "type": "bool"
        }
      ],
      "stateMutability": "view",
      "type": "function"
    },
    {
      "inputs": [
        {
          "internalType": "address",
          "name": "to",
          "type": "address"
        },
        {
          "internalType": "uint256",
          "name": "amount",
          "type": "uint256"
        }
      ],
      "name": "withdrawPayments",
      "outputs": [],
      "stateMutability": "nonpayable",
      "type": "function"
    }
  ],
  "bytecode": "0x60e060405234801561001057600080fd5b506040516170cb3803806170cb83398101604081905261002f916101fd565b338061005557604051631e4fbdf760e01b81526000600482015260240160405180910390fd5b61005e81610193565b50600180556001600160a01b03811660805260405161007c906101e3565b604051809103906000f080158015610098573d6000803e3d6000fd5b506001600160a01b031660a0526040516100b1906101f0565b604051809103906000f0801580156100cd573d6000803e3d6000fd5b506001600160a01b0390811660c05260a05160405163f2fde38b60e01b815230600482015291169063f2fde38b90602401600060405180830381600087803b15801561011857600080fd5b505af115801561012c573d6000803e3d6000fd5b505060c05160405163f2fde38b60e01b81523060048201526001600160a01b03909116925063f2fde38b9150602401600060405180830381600087803b15801561017557600080fd5b505af1158015610189573d6000803e3d6000fd5b505050505061022d565b600080546001600160a01b038381166001600160a01b0319831681178455604051919092169283917f8be0079c531659141344cd1fd0a4f28419497f9722a3daafe3b4186f6b6457e09190a35050565b6120ce80612e7a83390190565b61218380614f4883390190565b60006020828403121561020f57600080fd5b81516001600160a01b038116811461022657600080fd5b9392505050565b60805160a05160c051612b996102e1600039600081816104d30152818161070a015281816107aa015281816108520152818161125c01528181611a320152611ab801526000818161037601528181610a2f01528181610aba01528181610c4701528181610e6401528181611095015281816115480152818161165c015281816118340152818161193201528181611b6f0152611d4b0152600081816102c0015281816106590152610b7b0152612b996000f3fe608060405234801561001057600080fd5b50600436106102115760003560e01c80638c155e8b11610125578063dee93892116100ad578063f2fde38b1161007c578063f2fde38b14610508578063f533ac2b1461051b578063f63eb89d1461052e578063f90a7f4e14610536578063fd7eb8331461055657600080fd5b8063dee938921461049b578063e4ba3345146104bb578063ef952867146104ce578063f208f8ce146104f557600080fd5b8063a400e1b5116100f4578063a400e1b51461028d578063aa8abf731461044a578063ab5062461461045d578063c4ba5b4614610470578063c737eab11461048857600080fd5b80638c155e8b146103e65780638da5cb5b146103f9578063915642061461040a5780639c6845ac1461042a57600080fd5b8063443c227c116101a85780635ffd0918116101775780635ffd09181461037157806370fa501c14610398578063715018a6146103b8578063772ffe4a146103c05780637abf5464146103d357600080fd5b8063443c227c146102fa578063447bf3a2146103285780634a53ceec1461033b5780635dc37e211461034e57600080fd5b806328e13efa116101e457806328e13efa1461028d57806333abeeb5146102a057806341d0f641146102a857806342f6487a146102bb57600080fd5b806301242f2f14610216578063023991251461023e5780630e7afec51461025857806311e14c351461026d575b600080fd5b6102296102243660046121db565b610569565b60405190151581526020015b60405180910390f35b610246600081565b60405160ff9091168152602001610235565b61026b61026636600461221e565b61062b565b005b61028061027b36600461221e565b6106e1565b6040516102359190612286565b61026b61029b366004612299565b610782565b6102806108ef565b61026b6102b636600461232f565b610a10565b6102e27f000000000000000000000000000000000000000000000000000000000000000081565b6040516001600160a01b039091168152602001610235565b61031a610308366004612299565b60026020526000908152604090205481565b604051908152602001610235565b61026b610336366004612299565b610a9c565b61026b610349366004612299565b610b21565b61036161035c366004612299565b610cf0565b60405161023594939291906123f1565b6102e27f000000000000000000000000000000000000000000000000000000000000000081565b61031a6103a6366004612299565b60009081526003602052604090205490565b61026b610e15565b61026b6103ce36600461242c565b610e29565b61031a6103e1366004612485565b610fe0565b61026b6103f43660046124a2565b611052565b6000546001600160a01b03166102e2565b61041d610418366004612299565b6110f7565b60405161023591906124d7565b61031a610438366004612299565b60009081526002602052604090205490565b61041d610458366004612299565b611191565b61031a61046b36600461221e565b611233565b6104786112c9565b60405161023594939291906124ea565b61026b610496366004612642565b611529565b6104ae6104a9366004612299565b611581565b60405161023591906126b1565b61026b6104c93660046126c0565b6115ea565b6102e27f000000000000000000000000000000000000000000000000000000000000000081565b61041d610503366004612299565b611643565b61026b6105163660046126e2565b6116d3565b61026b6105293660046121db565b611713565b610280611b6b565b61031a610544366004612299565b60036020526000908152604090205481565b6102296105643660046126ff565b611bf8565b600082815260026020908152604080832081518083018352815481528251610120810193849052859491939184019160018401906009908288855b825461010083900a900460ff168152602060019283018181049485019490930390920291018084116105a457505050929093525050825192935050506000036105f1576000915050610625565b600083604051602001610604919061272d565b60408051601f19818403018152919052805160209091012091519091149150505b92915050565b610633611e24565b60405163a9059cbb60e01b81526001600160a01b038381166004830152602482018390527f0000000000000000000000000000000000000000000000000000000000000000169063a9059cbb906044016020604051808303816000875af19250505080156106be575060408051601f3d908101601f191682019092526106bb91810190612765565b60015b6106db576040516312171d8360e31b815260040160405180910390fd5b505b5050565b6040516311e14c3560e01b81526001600160a01b038381166004830152602482018390526060917f0000000000000000000000000000000000000000000000000000000000000000909116906311e14c3590604401600060405180830381865afa158015610753573d6000803e3d6000fd5b505050506040513d6000823e601f3d908101601f1916820160405261077b9190810190612787565b9392505050565b61078a611e51565b6040516331a9108f60e11b81526004810182905233906001600160a01b037f00000000000000000000000000000000000000000000000000000000000000001690636352211e90602401602060405180830381865afa1580156107f1573d6000803e3d6000fd5b505050506040513d601f19601f82011682018060405250810190610815919061281c565b6001600160a01b03161461083c576040516330cd747160e01b815260040160405180910390fd5b604051630852cd8d60e31b8152600481018290527f00000000000000000000000000000000000000000000000000000000000000006001600160a01b0316906342966c6890602401600060405180830381600087803b15801561089e57600080fd5b505af11580156108b2573d6000803e3d6000fd5b50506040518392503391507f4896181ff8f4543cc00db9fe9b6fb7e6f032b7eb772c72ab1ec1b4d2e03b936990600090a36108ec60018055565b50565b60408051600a8082526101608201909252606091600091906020820161014080368337019050509050600060015b600a81116109775760008181526002602052604090205415610965578083838151811061094c5761094c612839565b6020908102919091010152816109618161284f565b9250505b8061096f8161284f565b91505061091d565b506000816001600160401b0381111561099257610992612117565b6040519080825280602002602001820160405280156109bb578160200160208202803683370190505b50905060005b82811015610a08578381815181106109db576109db612839565b60200260200101518282815181106109f5576109f5612839565b60209081029190910101526001016109c1565b509392505050565b610a18611e24565b6040516341d0f64160e01b81526001600160a01b037f000000000000000000000000000000000000000000000000000000000000000016906341d0f64190610a669085908590600401612876565b600060405180830381600087803b158015610a8057600080fd5b505af1158015610a94573d6000803e3d6000fd5b505050505050565b610aa4611e24565b60405163223df9d160e11b8152600481018290527f00000000000000000000000000000000000000000000000000000000000000006001600160a01b03169063447bf3a290602401600060405180830381600087803b158015610b0657600080fd5b505af1158015610b1a573d6000803e3d6000fd5b5050505050565b610b29611e51565b60008181526003602052604081205490819003610b5957604051637a0ee03760e11b815260040160405180910390fd5b6040516323b872dd60e01b8152336004820152306024820152604481018290527f00000000000000000000000000000000000000000000000000000000000000006001600160a01b0316906323b872dd906064016020604051808303816000875af1925050508015610be8575060408051601f3d908101601f19168201909252610be591810190612765565b60015b610c05576040516307a4ced160e51b815260040160405180910390fd5b506000610c1183611e7b565b60405163731133e960e01b815233600482015260ff821660248201526001604482015260806064820152600060848201529091507f00000000000000000000000000000000000000000000000000000000000000006001600160a01b03169063731133e99060a401600060405180830381600087803b158015610c9357600080fd5b505af1158015610ca7573d6000803e3d6000fd5b505060405160ff841681528592503391507f82af6daccc26491c4b2117ddb2053d25bfe7e438ad55ed6dc1eadaf56d9134a69060200160405180910390a350506108ec60018055565b6000806060610cfd612031565b6000858152600360209081526040808320546002835281842054600490935292208054929650901515945090610d3290612897565b80601f0160208091040260200160405190810160405280929190818152602001828054610d5e90612897565b8015610dab5780601f10610d8057610100808354040283529160200191610dab565b820191906000526020600020905b815481529060010190602001808311610d8e57829003601f168201915b5050506000888152600260205260408082208151610120810192839052959750600101935060099250908390855b825461010083900a900460ff16815260206001928301818104948501949093039092029101808411610dd9579050505050505090509193509193565b610e1d611e24565b610e276000611fe1565b565b610e31611e24565b60005b6009811015610f32576000838260098110610e5157610e51612839565b602002015160ff1614158015610f0c57507f00000000000000000000000000000000000000000000000000000000000000006001600160a01b0316635c8ad6c7848360098110610ea357610ea3612839565b60200201516040516001600160e01b031960e084901b16815260ff9091166004820152602401602060405180830381865afa158015610ee6573d6000803e3d6000fd5b505050506040513d601f19601f82011682018060405250810190610f0a9190612765565b155b15610f2a5760405163581357ed60e11b815260040160405180910390fd5b600101610e34565b50600082604051602001610f46919061272d565b60408051601f19818403018152828252805160209182012083830183528084528382018781526000898152600290935292909120835181559151909350610f939060018301906009612050565b5050506000848152600460205260409020610fae8382612918565b5060405184907f8793f079a2d45779487766f72e8687f6beee4d5c74a9bbbeb14be22f44531a1490600090a250505050565b60008082604051602001610ff4919061272d565b60408051601f198184030181529190528051602090910120905060015b600a811161104857600081815260026020526040902054829003611036579392505050565b806110408161284f565b915050611011565b5060009392505050565b61105a611e24565b60405163731133e960e01b81526001600160a01b038481166004830152602482018490526044820183905260806064830152600060848301527f0000000000000000000000000000000000000000000000000000000000000000169063731133e99060a4015b600060405180830381600087803b1580156110da57600080fd5b505af11580156110ee573d6000803e3d6000fd5b50505050505050565b6004602052600090815260409020805461111090612897565b80601f016020809104026020016040519081016040528092919081815260200182805461113c90612897565b80156111895780601f1061115e57610100808354040283529160200191611189565b820191906000526020600020905b81548152906001019060200180831161116c57829003601f168201915b505050505081565b60008181526004602052604090208054606091906111ae90612897565b80601f01602080910402602001604051908101604052809291908181526020018280546111da90612897565b80156112275780601f106111fc57610100808354040283529160200191611227565b820191906000526020600020905b81548152906001019060200180831161120a57829003601f168201915b50505050509050919050565b6040516355a8312360e11b81526001600160a01b038381166004830152602482018390526000917f00000000000000000000000000000000000000000000000000000000000000009091169063ab50624690604401602060405180830381865afa1580156112a5573d6000803e3d6000fd5b505050506040513d601f19601f8201168201806040525081019061077b91906129d6565b6040805160168082526102e0820190925260609182918291829181602082016102c080368337019050509450806001600160401b0381111561130d5761130d612117565b604051908082528060200260200182016040528015611336578160200160208202803683370190505b509350806001600160401b0381111561135157611351612117565b60405190808252806020026020018201604052801561137a578160200160208202803683370190505b509250806001600160401b0381111561139557611395612117565b6040519080825280602002602001820160405280156113c857816020015b60608152602001906001900390816113b35790505b50915060005b8181101561152157808682815181106113e9576113e9612839565b602002602001018181525050600360008281526020019081526020016000205485828151811061141b5761141b612839565b60200260200101818152505060026000828152602001908152602001600020600001546000801b141584828151811061145657611456612839565b9115156020928302919091018201526000828152600490915260409020805461147e90612897565b80601f01602080910402602001604051908101604052809291908181526020018280546114aa90612897565b80156114f75780601f106114cc576101008083540402835291602001916114f7565b820191906000526020600020905b8154815290600101906020018083116114da57829003601f168201915b505050505083828151811061150e5761150e612839565b60209081029190910101526001016113ce565b505090919293565b611531611e24565b604051630fbfeffd60e11b81526001600160a01b037f00000000000000000000000000000000000000000000000000000000000000001690631f7fdffa906110c0908690869086906004016129ef565b611589612031565b6000828152600260205260408082208151610120810192839052926001909101916009918390855b825461010083900a900460ff168152602060019283018181049485019490930390920291018084116115b1575094979650505050505050565b6115f2611e24565b600082815260036020526040908190208290555182907fa55f0151b36fef535c750f525b9f9082bae75f218a7c8f5f800b27e511964a8f906116379084815260200190565b60405180910390a25050565b6040516379047c6760e11b8152600481018290526060907f00000000000000000000000000000000000000000000000000000000000000006001600160a01b03169063f208f8ce90602401600060405180830381865afa1580156116ab573d6000803e3d6000fd5b505050506040513d6000823e601f3d908101601f191682016040526106259190810190612a41565b6116db611e24565b6001600160a01b03811661170a57604051631e4fbdf760e01b8152600060048201526024015b60405180910390fd5b6108ec81611fe1565b61171b611e51565b600082815260026020908152604080832081518083018352815481528251610120810193849052909391929184019160018401906009908288855b825461010083900a900460ff1681526020600192830181810494850194909303909202910180841161175657505050929093525050825192935050506000036117b25760405163401ce32760e11b815260040160405180910390fd5b6000826040516020016117c5919061272d565b6040516020818303038152906040528051906020012090508160000151811461180157604051630289291760e41b815260040160405180910390fd5b60005b600981101561190257600084826009811061182157611821612839565b602002015160ff16141580156118dc57507f00000000000000000000000000000000000000000000000000000000000000006001600160a01b0316635c8ad6c785836009811061187357611873612839565b60200201516040516001600160e01b031960e084901b16815260ff9091166004820152602401602060405180830381865afa1580156118b6573d6000803e3d6000fd5b505050506040513d601f19601f820116820180604052508101906118da9190612765565b155b156118fa5760405163581357ed60e11b815260040160405180910390fd5b600101611804565b5060005b60098110156119e857600084826009811061192357611923612839565b602002015160ff16146119e0577f00000000000000000000000000000000000000000000000000000000000000006001600160a01b031663f5298aca3386846009811061197257611972612839565b60200201516040516001600160e01b031960e085901b1681526001600160a01b03909216600483015260ff16602482015260016044820152606401600060405180830381600087803b1580156119c757600080fd5b505af11580156119db573d6000803e3d6000fd5b505050505b600101611906565b5060008481526004602052604081208054611a0290612897565b90501115611a995760008481526004602081905260409182902091516333cfcb9f60e01b81526001600160a01b037f000000000000000000000000000000000000000000000000000000000000000016926333cfcb9f92611a669289929101612aae565b600060405180830381600087803b158015611a8057600080fd5b505af1158015611a94573d6000803e3d6000fd5b505050505b6040516340c10f1960e01b8152336004820152602481018590526000907f00000000000000000000000000000000000000000000000000000000000000006001600160a01b0316906340c10f19906044016020604051808303816000875af1158015611b09573d6000803e3d6000fd5b505050506040513d601f19601f82011682018060405250810190611b2d91906129d6565b6040519091508190869033907f1e2d1ef76cc9f2bf19e7077c9dfd53ee67bf6b21cbeb591e63876f77574729c990600090a45050506106dd60018055565b60607f00000000000000000000000000000000000000000000000000000000000000006001600160a01b031663f63eb89d6040518163ffffffff1660e01b8152600401600060405180830381865afa158015611bcb573d6000803e3d6000fd5b505050506040513d6000823e601f3d908101601f19168201604052611bf39190810190612787565b905090565b6000611c026120e3565b611c0a6120e3565b6000805b6009811015611d26576000868260098110611c2b57611c2b612839565b602002015160ff1614611d1e576000805b83811015611cb057878360098110611c5657611c56612839565b602002015160ff168682600a8110611c7057611c70612839565b602002015103611ca8578481600a8110611c8c57611c8c612839565b60200201805190611c9c8261284f565b90525060019150611cb0565b600101611c3c565b5080158015611cbf5750600a83105b15611d1c57868260098110611cd657611cd6612839565b602002015160ff168584600a8110611cf057611cf0612839565b602002015260018484600a8110611d0957611d09612839565b602002015282611d188161284f565b9350505b505b600101611c0e565b5060005b81811015611e17578281600a8110611d4457611d44612839565b60200201517f00000000000000000000000000000000000000000000000000000000000000006001600160a01b031662fdd58e898785600a8110611d8a57611d8a612839565b60200201516040516001600160e01b031960e085901b1681526001600160a01b0390921660048301526024820152604401602060405180830381865afa158015611dd8573d6000803e3d6000fd5b505050506040513d601f19601f82011682018060405250810190611dfc91906129d6565b1015611e0f576000945050505050610625565b600101611d2a565b5060019695505050505050565b6000546001600160a01b03163314610e275760405163118cdaa760e01b8152336004820152602401611701565b600260015403611e7457604051633ee5aeb560e01b815260040160405180910390fd5b6002600155565b600081815260026020526040808220815161012081019283905283929091600101906009908285855b825461010083900a900460ff16815260206001928301818104948501949093039092029101808411611ea457905050505050509050611ee1612031565b6000805b6009811015611f47576000848260098110611f0257611f02612839565b6020020151905060ff811615611f3e57808484611f1e8161284f565b955060098110611f3057611f30612839565b60ff90921660209290920201525b50600101611ee5565b5080600003611f695760405163401ce32760e11b815260040160405180910390fd5b604080514260208201526bffffffffffffffffffffffff193360601b169181019190915244605482015260009082906074016040516020818303038152906040528051906020012060001c611fbe9190612b41565b9050828160098110611fd257611fd2612839565b60200201519695505050505050565b600080546001600160a01b038381166001600160a01b0319831681178455604051919092169283917f8be0079c531659141344cd1fd0a4f28419497f9722a3daafe3b4186f6b6457e09190a35050565b6040518061012001604052806009906020820280368337509192915050565b6001830191839082156120d35791602002820160005b838211156120a457835183826101000a81548160ff021916908360ff1602179055509260200192600101602081600001049283019260010302612066565b80156120d15782816101000a81549060ff02191690556001016020816000010492830192600103026120a4565b505b506120df929150612102565b5090565b604051806101400160405280600a906020820280368337509192915050565b5b808211156120df5760008155600101612103565b634e487b7160e01b600052604160045260246000fd5b604051601f8201601f191681016001600160401b038111828210171561215557612155612117565b604052919050565b600082601f83011261216e57600080fd5b60405161012081016001600160401b038111828210171561219157612191612117565b604052806101208401858111156121a757600080fd5b845b818110156121d057803560ff811681146121c257600080fd5b8352602092830192016121a9565b509195945050505050565b60008061014083850312156121ef57600080fd5b82359150612200846020850161215d565b90509250929050565b6001600160a01b03811681146108ec57600080fd5b6000806040838503121561223157600080fd5b823561223c81612209565b946020939093013593505050565b600081518084526020840193506020830160005b8281101561227c57815186526020958601959091019060010161225e565b5093949350505050565b60208152600061077b602083018461224a565b6000602082840312156122ab57600080fd5b5035919050565b60006001600160401b038211156122cb576122cb612117565b50601f01601f191660200190565b600082601f8301126122ea57600080fd5b81356122fd6122f8826122b2565b61212d565b81815284602083860101111561231257600080fd5b816020850160208301376000918101602001919091529392505050565b6000806040838503121561234257600080fd5b8235915060208301356001600160401b0381111561235f57600080fd5b61236b858286016122d9565b9150509250929050565b60005b83811015612390578181015183820152602001612378565b50506000910152565b600081518084526123b1816020860160208601612375565b601f01601f19169290920160200192915050565b8060005b60098110156123eb57815160ff168452602093840193909101906001016123c9565b50505050565b848152831515602082015261018060408201526000612414610180830185612399565b905061242360608301846123c5565b95945050505050565b6000806000610160848603121561244257600080fd5b83359250612453856020860161215d565b91506101408401356001600160401b0381111561246f57600080fd5b61247b868287016122d9565b9150509250925092565b6000610120828403121561249857600080fd5b61077b838361215d565b6000806000606084860312156124b757600080fd5b83356124c281612209565b95602085013595506040909401359392505050565b60208152600061077b6020830184612399565b6080815260006124fd608083018761224a565b828103602084015261250f818761224a565b83810360408501528551808252602080880193509091019060005b8181101561254a578351151583526020938401939092019160010161252a565b505083810360608501528091506000855180835260208301935060208160051b8401016020880160005b838110156125a657601f19868403018752612590838351612399565b6020978801979093509190910190600101612574565b50909b9a5050505050505050505050565b60006001600160401b038211156125d0576125d0612117565b5060051b60200190565b600082601f8301126125eb57600080fd5b81356125f96122f8826125b7565b8082825260208201915060208360051b86010192508583111561261b57600080fd5b602085015b83811015612638578035835260209283019201612620565b5095945050505050565b60008060006060848603121561265757600080fd5b833561266281612209565b925060208401356001600160401b0381111561267d57600080fd5b612689868287016125da565b92505060408401356001600160401b038111156126a557600080fd5b61247b868287016125da565b610120810161062582846123c5565b600080604083850312156126d357600080fd5b50508035926020909101359150565b6000602082840312156126f457600080fd5b813561077b81612209565b600080610140838503121561271357600080fd5b823561271e81612209565b9150612200846020850161215d565b60008183825b600981101561275557815160ff16835260209283019290910190600101612733565b5050506101208201905092915050565b60006020828403121561277757600080fd5b8151801515811461077b57600080fd5b60006020828403121561279957600080fd5b81516001600160401b038111156127af57600080fd5b8201601f810184136127c057600080fd5b80516127ce6122f8826125b7565b8082825260208201915060208360051b8501019250868311156127f057600080fd5b6020840193505b828410156128125783518252602093840193909101906127f7565b9695505050505050565b60006020828403121561282e57600080fd5b815161077b81612209565b634e487b7160e01b600052603260045260246000fd5b60006001820161286f57634e487b7160e01b600052601160045260246000fd5b5060010190565b82815260406020820152600061288f6040830184612399565b949350505050565b600181811c908216806128ab57607f821691505b6020821081036128cb57634e487b7160e01b600052602260045260246000fd5b50919050565b601f8211156106db57806000526020600020601f840160051c810160208510156128f85750805b601f840160051c820191505b81811015610b1a5760008155600101612904565b81516001600160401b0381111561293157612931612117565b6129458161293f8454612897565b846128d1565b6020601f82116001811461297957600083156129615750848201515b600019600385901b1c1916600184901b178455610b1a565b600084815260208120601f198516915b828110156129a95787850151825560209485019460019092019101612989565b50848210156129c75786840151600019600387901b60f8161c191681555b50505050600190811b01905550565b6000602082840312156129e857600080fd5b5051919050565b6001600160a01b0384168152608060208201819052600090612a139083018561224a565b8281036040840152612a25818561224a565b8381036060909401939093525050600081526020019392505050565b600060208284031215612a5357600080fd5b81516001600160401b03811115612a6957600080fd5b8201601f81018413612a7a57600080fd5b8051612a886122f8826122b2565b818152856020838501011115612a9d57600080fd5b612423826020830160208601612375565b828152604060208201526000808354612ac681612897565b8060408601526001821660008114612ae55760018114612b0157612b35565b60ff1983166060870152606082151560051b8701019350612b35565b86600052602060002060005b83811015612b2c57815488820160600152600190910190602001612b0d565b87016060019450505b50919695505050505050565b600082612b5e57634e487b7160e01b600052601260045260246000fd5b50069056fea2646970667358221220ff0e2ded5a4081bedc36231c263ad01e8e194f3978da08ef620802d4e819499d64736f6c634300081c0033608060405234801561001057600080fd5b50604080516020810190915260008152339061002b81610069565b506001600160a01b03811661005a57604051631e4fbdf760e01b81526000600482015260240160405180910390fd5b61006381610079565b50610228565b6002610075828261016a565b5050565b600580546001600160a01b038381166001600160a01b0319831681179093556040519116919082907f8be0079c531659141344cd1fd0a4f28419497f9722a3daafe3b4186f6b6457e090600090a35050565b634e487b7160e01b600052604160045260246000fd5b600181811c908216806100f557607f821691505b60208210810361011557634e487b7160e01b600052602260045260246000fd5b50919050565b601f82111561016557806000526020600020601f840160051c810160208510156101425750805b601f840160051c820191505b81811015610162576000815560010161014e565b50505b505050565b81516001600160401b03811115610183576101836100cb565b6101978161019184546100e1565b8461011b565b6020601f8211600181146101cb57600083156101b35750848201515b600019600385901b1c1916600184901b178455610162565b600084815260208120601f198516915b828110156101fb57878501518255602094850194600190920191016101db565b50848210156102195786840151600019600387901b60f8161c191681555b50505050600190811b01905550565b611e97806102376000396000f3fe608060405234801561001057600080fd5b506004361061018d5760003560e01c8063731133e9116100de578063d02ef86311610097578063f242432a11610071578063f242432a14610397578063f2fde38b146103aa578063f5298aca146103bd578063f63eb89d146103d057600080fd5b8063d02ef8631461034e578063e985e9c514610371578063f208f8ce1461038457600080fd5b8063731133e9146102d15780638da5cb5b146102e4578063a22cb465146102ff578063bd85b03914610312578063c54de01b14610332578063cb65c9191461033b57600080fd5b806341d0f6411161014b5780634f558e79116101255780634f558e79146102715780635c8ad6c7146102935780636b20c454146102b6578063715018a6146102c957600080fd5b806341d0f6411461022b578063447bf3a21461023e5780634e1273f41461025157600080fd5b8062fdd58e1461019257806301ffc9a7146101b85780630e89341c146101db57806318160ddd146101fb5780631f7fdffa146102035780632eb2c2d614610218575b600080fd5b6101a56101a0366004611526565b6103d8565b6040519081526020015b60405180910390f35b6101cb6101c6366004611566565b610400565b60405190151581526020016101af565b6101ee6101e936600461158a565b610450565b6040516101af91906115e9565b6004546101a5565b61021661021136600461174d565b6104e4565b005b6102166102263660046117ef565b610564565b6102166102393660046118a2565b6105d0565b61021661024c36600461158a565b610682565b61026461025f3660046118fc565b610782565b6040516101af91906119f5565b6101cb61027f36600461158a565b600090815260036020526040902054151590565b6101cb6102a136600461158a565b60009081526006602052604090205460ff1690565b6102166102c4366004611a08565b61084e565b610216610866565b6102166102df366004611a7f565b61087a565b6005546040516001600160a01b0390911681526020016101af565b61021661030d366004611ac7565b6108bd565b6101a561032036600461158a565b60009081526003602052604090205490565b6101a560085481565b6101ee61034936600461158a565b6108cc565b6101cb61035c36600461158a565b60066020526000908152604090205460ff1681565b6101cb61037f366004611b03565b610966565b6101ee61039236600461158a565b610994565b6102166103a5366004611b36565b6109df565b6102166103b8366004611b8e565b610a3e565b6102166103cb366004611ba9565b610a7c565b610264610abe565b6000818152602081815260408083206001600160a01b03861684529091529020545b92915050565b60006001600160e01b03198216636cdb3d1360e11b148061043157506001600160e01b031982166303a24d0760e21b145b806103fa57506301ffc9a760e01b6001600160e01b03198316146103fa565b60606002805461045f90611bdc565b80601f016020809104026020016040519081016040528092919081815260200182805461048b90611bdc565b80156104d85780601f106104ad576101008083540402835291602001916104d8565b820191906000526020600020905b8154815290600101906020018083116104bb57829003601f168201915b50505050509050919050565b6104ec610c07565b60005b8351811015610551576006600085838151811061050e5761050e611c16565b60209081029190910181015182528101919091526040016000205460ff166105495760405163581357ed60e11b815260040160405180910390fd5b6001016104ef565b5061055e84848484610c34565b50505050565b336001600160a01b038616811480159061058557506105838682610966565b155b156105bb5760405163711bec9160e11b81526001600160a01b038083166004830152871660248201526044015b60405180910390fd5b6105c88686868686610c6c565b505050505050565b6105d8610c07565b60008281526006602052604090205460ff161561060857604051637de6844760e01b815260040160405180910390fd5b6000828152600660209081526040808320805460ff19166001179055600790915290206106358282611c73565b506008548211156106465760088290555b817fab14cf47dafc6e6f5ad512b59307f5ecb35da8c8806f4259b2c46bedb3a79b018260405161067691906115e9565b60405180910390a25050565b61068a610c07565b60008181526006602052604090205460ff166106b957604051637e50553560e11b815260040160405180910390fd5b6000818152600360205260409020541561072b5760405162461bcd60e51b815260206004820152602d60248201527f43616e6e6f742072656d6f766520696e6772656469656e74207769746820657860448201526c697374696e6720737570706c7960981b60648201526084016105b2565b6000818152600660209081526040808320805460ff1916905560079091528120610754916114bc565b60405181907f649feb93d2489e5f18d5b966af0e2e1a8bb86425417906a0a3ce2b9b4a2d5d2390600090a250565b606081518351146107b35781518351604051635b05999160e01b8152600481019290925260248201526044016105b2565b600083516001600160401b038111156107ce576107ce6115fc565b6040519080825280602002602001820160405280156107f7578160200160208202803683370190505b50905060005b845181101561084657602080820286010151610821906020808402870101516103d8565b82828151811061083357610833611c16565b60209081029190910101526001016107fd565b509392505050565b610856610c07565b610861838383610cd3565b505050565b61086e610c07565b6108786000610d19565b565b610882610c07565b60008381526006602052604090205460ff166108b15760405163581357ed60e11b815260040160405180910390fd5b61055e84848484610d6b565b6108c8338383610dc8565b5050565b600760205260009081526040902080546108e590611bdc565b80601f016020809104026020016040519081016040528092919081815260200182805461091190611bdc565b801561095e5780601f106109335761010080835404028352916020019161095e565b820191906000526020600020905b81548152906001019060200180831161094157829003601f168201915b505050505081565b6001600160a01b03918216600090815260016020908152604080832093909416825291909152205460ff1690565b60008181526006602052604090205460609060ff166109c657604051637e50553560e11b815260040160405180910390fd5b6000828152600760205260409020805461045f90611bdc565b336001600160a01b0386168114801590610a0057506109fe8682610966565b155b15610a315760405163711bec9160e11b81526001600160a01b038083166004830152871660248201526044016105b2565b6105c88686868686610e5e565b610a46610c07565b6001600160a01b038116610a7057604051631e4fbdf760e01b8152600060048201526024016105b2565b610a7981610d19565b50565b610a84610c07565b60008281526006602052604090205460ff16610ab35760405163581357ed60e11b815260040160405180910390fd5b610861838383610eec565b606060006008546001610ad19190611d47565b6001600160401b03811115610ae857610ae86115fc565b604051908082528060200260200182016040528015610b11578160200160208202803683370190505b5090506000805b6008548111610b765760008181526006602052604090205460ff1615610b645780838381518110610b4b57610b4b611c16565b602090810291909101015281610b6081611d5a565b9250505b80610b6e81611d5a565b915050610b18565b506000816001600160401b03811115610b9157610b916115fc565b604051908082528060200260200182016040528015610bba578160200160208202803683370190505b50905060005b8281101561084657838181518110610bda57610bda611c16565b6020026020010151828281518110610bf457610bf4611c16565b6020908102919091010152600101610bc0565b6005546001600160a01b031633146108785760405163118cdaa760e01b81523360048201526024016105b2565b6001600160a01b038416610c5e57604051632bfa23e760e11b8152600060048201526024016105b2565b61055e600085858585610f50565b6001600160a01b038416610c9657604051632bfa23e760e11b8152600060048201526024016105b2565b6001600160a01b038516610cbf57604051626a0d4560e21b8152600060048201526024016105b2565b610ccc8585858585610f50565b5050505050565b6001600160a01b038316610cfc57604051626a0d4560e21b8152600060048201526024016105b2565b610861836000848460405180602001604052806000815250610f50565b600580546001600160a01b038381166001600160a01b0319831681179093556040519116919082907f8be0079c531659141344cd1fd0a4f28419497f9722a3daafe3b4186f6b6457e090600090a35050565b6001600160a01b038416610d9557604051632bfa23e760e11b8152600060048201526024016105b2565b604080516001808252602082018690528183019081526060820185905260808201909252906105c8600087848487610f50565b6001600160a01b038216610df15760405162ced3e160e81b8152600060048201526024016105b2565b6001600160a01b03838116600081815260016020908152604080832094871680845294825291829020805460ff191686151590811790915591519182527f17307eab39ab6107e8899845ad3d59bd9653f200f220920489ca2b5937696c31910160405180910390a3505050565b6001600160a01b038416610e8857604051632bfa23e760e11b8152600060048201526024016105b2565b6001600160a01b038516610eb157604051626a0d4560e21b8152600060048201526024016105b2565b60408051600180825260208201869052818301908152606082018590526080820190925290610ee38787848487610f50565b50505050505050565b6001600160a01b038316610f1557604051626a0d4560e21b8152600060048201526024016105b2565b604080516001808252602082018590528183019081526060820184905260a08201909252600060808201818152919291610ccc918791859085905b610f5c85858585610fa3565b6001600160a01b03841615610ccc5782513390600103610f955760208481015190840151610f8e838989858589610faf565b50506105c8565b6105c88187878787876110d3565b61055e848484846111bc565b6001600160a01b0384163b156105c85760405163f23a6e6160e01b81526001600160a01b0385169063f23a6e6190610ff39089908990889088908890600401611d73565b6020604051808303816000875af192505050801561102e575060408051601f3d908101601f1916820190925261102b91810190611db8565b60015b611097573d80801561105c576040519150601f19603f3d011682016040523d82523d6000602084013e611061565b606091505b50805160000361108f57604051632bfa23e760e11b81526001600160a01b03861660048201526024016105b2565b805181602001fd5b6001600160e01b0319811663f23a6e6160e01b14610ee357604051632bfa23e760e11b81526001600160a01b03861660048201526024016105b2565b6001600160a01b0384163b156105c85760405163bc197c8160e01b81526001600160a01b0385169063bc197c81906111179089908990889088908890600401611dd5565b6020604051808303816000875af1925050508015611152575060408051601f3d908101601f1916820190925261114f91810190611db8565b60015b611180573d80801561105c576040519150601f19603f3d011682016040523d82523d6000602084013e611061565b6001600160e01b0319811663bc197c8160e01b14610ee357604051632bfa23e760e11b81526001600160a01b03861660048201526024016105b2565b6111c8848484846112a8565b6001600160a01b038416611248576000805b835181101561122e5760208181028481018201519086018201516000908152600390925260408220805491928392611213908490611d47565b9091555061122390508184611d47565b9250506001016111da565b5080600460008282546112419190611d47565b9091555050505b6001600160a01b03831661055e576000805b835181101561129757602081810284810182015190860182015160009081526003909252604090912080548290039055919091019060010161125a565b506004805491909103905550505050565b80518251146112d75781518151604051635b05999160e01b8152600481019290925260248201526044016105b2565b3360005b83518110156113dd576020818102858101820151908501909101516001600160a01b0388161561138e576000828152602081815260408083206001600160a01b038c16845290915290205481811015611367576040516303dee4c560e01b81526001600160a01b038a1660048201526024810182905260448101839052606481018490526084016105b2565b6000838152602081815260408083206001600160a01b038d16845290915290209082900390555b6001600160a01b038716156113d3576000828152602081815260408083206001600160a01b038b168452909152812080548392906113cd908490611d47565b90915550505b50506001016112db565b50825160010361145e5760208301516000906020840151909150856001600160a01b0316876001600160a01b0316846001600160a01b03167fc3d58168c5ae7397731d063d5bbf3d657854427343f4c083240f7aacaa2d0f62858560405161144f929190918252602082015260400190565b60405180910390a45050610ccc565b836001600160a01b0316856001600160a01b0316826001600160a01b03167f4a39dc06d4c0dbc64b70af90fd698a233a518aa5d07e595d983b8c0526c8f7fb86866040516114ad929190611e33565b60405180910390a45050505050565b5080546114c890611bdc565b6000825580601f106114d8575050565b601f016020900490600052602060002090810190610a7991905b8082111561150657600081556001016114f2565b5090565b80356001600160a01b038116811461152157600080fd5b919050565b6000806040838503121561153957600080fd5b6115428361150a565b946020939093013593505050565b6001600160e01b031981168114610a7957600080fd5b60006020828403121561157857600080fd5b813561158381611550565b9392505050565b60006020828403121561159c57600080fd5b5035919050565b6000815180845260005b818110156115c9576020818501810151868301820152016115ad565b506000602082860101526020601f19601f83011685010191505092915050565b60208152600061158360208301846115a3565b634e487b7160e01b600052604160045260246000fd5b604051601f8201601f191681016001600160401b038111828210171561163a5761163a6115fc565b604052919050565b60006001600160401b0382111561165b5761165b6115fc565b5060051b60200190565b600082601f83011261167657600080fd5b813561168961168482611642565b611612565b8082825260208201915060208360051b8601019250858311156116ab57600080fd5b602085015b838110156116c85780358352602092830192016116b0565b5095945050505050565b6000806001600160401b038411156116ec576116ec6115fc565b50601f8301601f191660200161170181611612565b91505082815283838301111561171657600080fd5b828260208301376000602084830101529392505050565b600082601f83011261173e57600080fd5b611583838335602085016116d2565b6000806000806080858703121561176357600080fd5b61176c8561150a565b935060208501356001600160401b0381111561178757600080fd5b61179387828801611665565b93505060408501356001600160401b038111156117af57600080fd5b6117bb87828801611665565b92505060608501356001600160401b038111156117d757600080fd5b6117e38782880161172d565b91505092959194509250565b600080600080600060a0868803121561180757600080fd5b6118108661150a565b945061181e6020870161150a565b935060408601356001600160401b0381111561183957600080fd5b61184588828901611665565b93505060608601356001600160401b0381111561186157600080fd5b61186d88828901611665565b92505060808601356001600160401b0381111561188957600080fd5b6118958882890161172d565b9150509295509295909350565b600080604083850312156118b557600080fd5b8235915060208301356001600160401b038111156118d257600080fd5b8301601f810185136118e357600080fd5b6118f2858235602084016116d2565b9150509250929050565b6000806040838503121561190f57600080fd5b82356001600160401b0381111561192557600080fd5b8301601f8101851361193657600080fd5b803561194461168482611642565b8082825260208201915060208360051b85010192508783111561196657600080fd5b6020840193505b8284101561198f5761197e8461150a565b82526020938401939091019061196d565b945050505060208301356001600160401b038111156119ad57600080fd5b6118f285828601611665565b600081518084526020840193506020830160005b828110156119eb5781518652602095860195909101906001016119cd565b5093949350505050565b60208152600061158360208301846119b9565b600080600060608486031215611a1d57600080fd5b611a268461150a565b925060208401356001600160401b03811115611a4157600080fd5b611a4d86828701611665565b92505060408401356001600160401b03811115611a6957600080fd5b611a7586828701611665565b9150509250925092565b60008060008060808587031215611a9557600080fd5b611a9e8561150a565b9350602085013592506040850135915060608501356001600160401b038111156117d757600080fd5b60008060408385031215611ada57600080fd5b611ae38361150a565b915060208301358015158114611af857600080fd5b809150509250929050565b60008060408385031215611b1657600080fd5b611b1f8361150a565b9150611b2d6020840161150a565b90509250929050565b600080600080600060a08688031215611b4e57600080fd5b611b578661150a565b9450611b656020870161150a565b9350604086013592506060860135915060808601356001600160401b0381111561188957600080fd5b600060208284031215611ba057600080fd5b6115838261150a565b600080600060608486031215611bbe57600080fd5b611bc78461150a565b95602085013595506040909401359392505050565b600181811c90821680611bf057607f821691505b602082108103611c1057634e487b7160e01b600052602260045260246000fd5b50919050565b634e487b7160e01b600052603260045260246000fd5b601f82111561086157806000526020600020601f840160051c81016020851015611c535750805b601f840160051c820191505b81811015610ccc5760008155600101611c5f565b81516001600160401b03811115611c8c57611c8c6115fc565b611ca081611c9a8454611bdc565b84611c2c565b6020601f821160018114611cd45760008315611cbc5750848201515b600019600385901b1c1916600184901b178455610ccc565b600084815260208120601f198516915b82811015611d045787850151825560209485019460019092019101611ce4565b5084821015611d225786840151600019600387901b60f8161c191681555b50505050600190811b01905550565b634e487b7160e01b600052601160045260246000fd5b808201808211156103fa576103fa611d31565b600060018201611d6c57611d6c611d31565b5060010190565b6001600160a01b03868116825285166020820152604081018490526060810183905260a060808201819052600090611dad908301846115a3565b979650505050505050565b600060208284031215611dca57600080fd5b815161158381611550565b6001600160a01b0386811682528516602082015260a060408201819052600090611e01908301866119b9565b8281036060840152611e1381866119b9565b90508281036080840152611e2781856115a3565b98975050505050505050565b604081526000611e4660408301856119b9565b8281036020840152611e5881856119b9565b9594505050505056fea2646970667358221220e57264b63ca68287758412638f76246268e4907c58dfa375be0731abf36c000a64736f6c634300081c0033608060405234801561001057600080fd5b50336040518060400160405280600981526020016810dbd999995953919560ba1b81525060405180604001604052806006815260200165434f4646454560d01b815250816000908161006291906101a5565b50600161006f82826101a5565b5050506001600160a01b0381166100a057604051631e4fbdf760e01b81526000600482015260240160405180910390fd5b6100a9816100b4565b506001600c55610263565b600b80546001600160a01b038381166001600160a01b0319831681179093556040519116919082907f8be0079c531659141344cd1fd0a4f28419497f9722a3daafe3b4186f6b6457e090600090a35050565b634e487b7160e01b600052604160045260246000fd5b600181811c9082168061013057607f821691505b60208210810361015057634e487b7160e01b600052602260045260246000fd5b50919050565b601f8211156101a057806000526020600020601f840160051c8101602085101561017d5750805b601f840160051c820191505b8181101561019d5760008155600101610189565b50505b505050565b81516001600160401b038111156101be576101be610106565b6101d2816101cc845461011c565b84610156565b6020601f82116001811461020657600083156101ee5750848201515b600019600385901b1c1916600184901b17845561019d565b600084815260208120601f198516915b828110156102365787850151825560209485019460019092019101610216565b50848210156102545786840151600019600387901b60f8161c191681555b50505050600190811b01905550565b611f11806102726000396000f3fe608060405234801561001057600080fd5b50600436106101c45760003560e01c80634f6ccce7116100f9578063a22cb46511610097578063b88d4fde11610071578063b88d4fde146103d4578063c87b56dd146103e7578063e985e9c5146103fa578063f2fde38b1461040d57600080fd5b8063a22cb4651461038e578063aafe32ef146103a1578063ab506246146103c157600080fd5b8063715018a6116100d3578063715018a61461035a5780638da5cb5b14610362578063915642061461037357806395d89b411461038657600080fd5b80634f6ccce7146103215780636352211e1461033457806370a082311461034757600080fd5b806323b872dd1161016657806338e16dec1161014057806338e16dec146102d557806340c10f19146102e857806342842e0e146102fb57806342966c681461030e57600080fd5b806323b872dd1461029c5780632f745c59146102af57806333cfcb9f146102c257600080fd5b8063095ea7b3116101a2578063095ea7b3146102315780630e511bde1461024657806311e14c351461027457806318160ddd1461029457600080fd5b806301ffc9a7146101c957806306fdde03146101f1578063081812fc14610206575b600080fd5b6101dc6101d7366004611903565b610420565b60405190151581526020015b60405180910390f35b6101f9610431565b6040516101e89190611970565b610219610214366004611983565b6104c3565b6040516001600160a01b0390911681526020016101e8565b61024461023f3660046119b8565b6104ec565b005b610266610254366004611983565b600e6020526000908152604090205481565b6040519081526020016101e8565b6102876102823660046119b8565b6104fb565b6040516101e891906119e2565b600954610266565b6102446102aa366004611a25565b610654565b6102666102bd3660046119b8565b6106e4565b6102446102d0366004611af2565b610749565b6102666102e3366004611983565b61076e565b6102666102f63660046119b8565b6107b5565b610244610309366004611a25565b610901565b61024461031c366004611983565b61091c565b61026661032f366004611983565b610930565b610219610342366004611983565b610989565b610266610355366004611b4d565b610994565b6102446109dc565b600b546001600160a01b0316610219565b6101f9610381366004611983565b6109f0565b6101f9610a8a565b61024461039c366004611b68565b610a99565b6102666103af366004611983565b600f6020526000908152604090205481565b6102666103cf3660046119b8565b610aa4565b6102446103e2366004611ba4565b610b04565b6101f96103f5366004611983565b610b1c565b6101dc610408366004611c20565b610b27565b61024461041b366004611b4d565b610b55565b600061042b82610b90565b92915050565b60606000805461044090611c53565b80601f016020809104026020016040519081016040528092919081815260200182805461046c90611c53565b80156104b95780601f1061048e576101008083540402835291602001916104b9565b820191906000526020600020905b81548152906001019060200180831161049c57829003601f168201915b5050505050905090565b60006104ce82610bb5565b506000828152600460205260409020546001600160a01b031661042b565b6104f7828233610bee565b5050565b6060600061050884610994565b905060008167ffffffffffffffff81111561052557610525611a62565b60405190808252806020026020018201604052801561054e578160200160208202803683370190505b5090506000805b838110156105b757600061056988836106e4565b6000818152600e60205260409020549091508790036105ae578084848151811061059557610595611c8d565b6020908102919091010152826105aa81611cb9565b9350505b50600101610555565b5060008167ffffffffffffffff8111156105d3576105d3611a62565b6040519080825280602002602001820160405280156105fc578160200160208202803683370190505b50905060005b828110156106495783818151811061061c5761061c611c8d565b602002602001015182828151811061063657610636611c8d565b6020908102919091010152600101610602565b509695505050505050565b6001600160a01b03821661068357604051633250574960e11b8152600060048201526024015b60405180910390fd5b6000610690838333610bfb565b9050836001600160a01b0316816001600160a01b0316146106de576040516364283d7b60e01b81526001600160a01b038086166004830152602482018490528216604482015260640161067a565b50505050565b60006106ef83610994565b82106107205760405163295f44f760e21b81526001600160a01b03841660048201526024810183905260440161067a565b506001600160a01b03919091166000908152600760209081526040808320938352929052205490565b610751610c10565b6000828152600d602052604090206107698282611d19565b505050565b6000818152600260205260408120546001600160a01b03166107a257604051626f708760e21b815260040160405180910390fd5b506000908152600e602052604090205490565b60006107bf610c10565b600c8054600091826107d083611cb9565b909155506000818152600e60209081526040808320879055868352600f909152812080549293509061080183611cb9565b91905055506108108482610c3d565b6000838152600d60205260408120805461082990611c53565b80601f016020809104026020016040519081016040528092919081815260200182805461085590611c53565b80156108a25780601f10610877576101008083540402835291602001916108a2565b820191906000526020600020905b81548152906001019060200180831161088557829003601f168201915b505050505090506000815111156108f9576108f982826108d4600f600089815260200190815260200160002054610c57565b6040516020016108e5929190611dd8565b604051602081830303815290604052610d58565b509392505050565b61076983838360405180602001604052806000815250610b04565b610924610c10565b61092d81610da8565b50565b600061093b60095490565b82106109645760405163295f44f760e21b8152600060048201526024810183905260440161067a565b6009828154811061097757610977611c8d565b90600052602060002001549050919050565b600061042b82610bb5565b60006001600160a01b0382166109c0576040516322718ad960e21b81526000600482015260240161067a565b506001600160a01b031660009081526003602052604090205490565b6109e4610c10565b6109ee6000610de3565b565b600d6020526000908152604090208054610a0990611c53565b80601f0160208091040260200160405190810160405280929190818152602001828054610a3590611c53565b8015610a825780601f10610a5757610100808354040283529160200191610a82565b820191906000526020600020905b815481529060010190602001808311610a6557829003601f168201915b505050505081565b60606001805461044090611c53565b6104f7338383610e35565b60008080610ab185610994565b905060005b81811015610afa576000610aca87836106e4565b6000818152600e6020526040902054909150869003610af15783610aed81611cb9565b9450505b50600101610ab6565b5090949350505050565b610b0f848484610654565b6106de3385858585610ed4565b606061042b82610fff565b6001600160a01b03918216600090815260056020908152604080832093909416825291909152205460ff1690565b610b5d610c10565b6001600160a01b038116610b8757604051631e4fbdf760e01b81526000600482015260240161067a565b61092d81610de3565b60006001600160e01b0319821663780e9d6360e01b148061042b575061042b82611108565b6000818152600260205260408120546001600160a01b03168061042b57604051637e27328960e01b81526004810184905260240161067a565b610769838383600161112d565b6000610c08848484611233565b949350505050565b600b546001600160a01b031633146109ee5760405163118cdaa760e01b815233600482015260240161067a565b6104f7828260405180602001604052806000815250611300565b606081600003610c7e5750506040805180820190915260018152600360fc1b602082015290565b8160005b8115610ca85780610c9281611cb9565b9150610ca19050600a83611e1d565b9150610c82565b60008167ffffffffffffffff811115610cc357610cc3611a62565b6040519080825280601f01601f191660200182016040528015610ced576020820181803683370190505b5090505b8415610c0857610d02600183611e31565b9150610d0f600a86611e44565b610d1a906030611e58565b60f81b818381518110610d2f57610d2f611c8d565b60200101906001600160f81b031916908160001a905350610d51600a86611e1d565b9450610cf1565b6000828152600660205260409020610d708282611d19565b506040518281527ff8e1a15aba9398e019f0b49df1a4fde98ee17ae345cb5f6b5e2c27f5033e8ce79060200160405180910390a15050565b6000610db76000836000610bfb565b90506001600160a01b0381166104f757604051637e27328960e01b81526004810183905260240161067a565b600b80546001600160a01b038381166001600160a01b0319831681179093556040519116919082907f8be0079c531659141344cd1fd0a4f28419497f9722a3daafe3b4186f6b6457e090600090a35050565b6001600160a01b038216610e6757604051630b61174360e31b81526001600160a01b038316600482015260240161067a565b6001600160a01b03838116600081815260056020908152604080832094871680845294825291829020805460ff191686151590811790915591519182527f17307eab39ab6107e8899845ad3d59bd9653f200f220920489ca2b5937696c31910160405180910390a3505050565b6001600160a01b0383163b15610ff857604051630a85bd0160e11b81526001600160a01b0384169063150b7a0290610f16908890889087908790600401611e6b565b6020604051808303816000875af1925050508015610f51575060408051601f3d908101601f19168201909252610f4e91810190611ea8565b60015b610fba573d808015610f7f576040519150601f19603f3d011682016040523d82523d6000602084013e610f84565b606091505b508051600003610fb257604051633250574960e11b81526001600160a01b038516600482015260240161067a565b805181602001fd5b6001600160e01b03198116630a85bd0160e11b14610ff657604051633250574960e11b81526001600160a01b038516600482015260240161067a565b505b5050505050565b606061100a82610bb5565b506000828152600660205260408120805461102490611c53565b80601f016020809104026020016040519081016040528092919081815260200182805461105090611c53565b801561109d5780601f106110725761010080835404028352916020019161109d565b820191906000526020600020905b81548152906001019060200180831161108057829003601f168201915b5050505050905060006110bb60408051602081019091526000815290565b905080516000036110cd575092915050565b8151156110ff5780826040516020016110e7929190611dd8565b60405160208183030381529060405292505050919050565b610c0884611318565b60006001600160e01b03198216632483248360e11b148061042b575061042b8261138d565b808061114157506001600160a01b03821615155b1561120357600061115184610bb5565b90506001600160a01b0383161580159061117d5750826001600160a01b0316816001600160a01b031614155b8015611190575061118e8184610b27565b155b156111b95760405163a9fbf51f60e01b81526001600160a01b038416600482015260240161067a565b81156112015783856001600160a01b0316826001600160a01b03167f8c5be1e5ebec7d5bd14f71427d1e84f3dd0314c0f7b2291e5b200ac8c7c3b92560405160405180910390a45b505b5050600090815260046020526040902080546001600160a01b0319166001600160a01b0392909216919091179055565b6000806112418585856113dd565b90506001600160a01b03811661129e5761129984600980546000838152600a60205260408120829055600182018355919091527f6e1540171b6c0c960b71a7020d9f60077f6af931a8bbf590da0223dacf75c7af0155565b6112c1565b846001600160a01b0316816001600160a01b0316146112c1576112c181856114d6565b6001600160a01b0385166112dd576112d884611557565b610c08565b846001600160a01b0316816001600160a01b031614610c0857610c088585611606565b61130a8383611656565b610769336000858585610ed4565b606061132382610bb5565b50600061133b60408051602081019091526000815290565b9050600081511161135b5760405180602001604052806000815250611386565b80611365846116bb565b604051602001611376929190611dd8565b6040516020818303038152906040525b9392505050565b60006001600160e01b031982166380ac58cd60e01b14806113be57506001600160e01b03198216635b5e139f60e01b145b8061042b57506301ffc9a760e01b6001600160e01b031983161461042b565b6000828152600260205260408120546001600160a01b039081169083161561140a5761140a81848661174e565b6001600160a01b038116156114485761142760008560008061112d565b6001600160a01b038116600090815260036020526040902080546000190190555b6001600160a01b03851615611477576001600160a01b0385166000908152600360205260409020805460010190555b60008481526002602052604080822080546001600160a01b0319166001600160a01b0389811691821790925591518793918516917fddf252ad1be2c89b69c2b068fc378daa952ba7f163c4a11628f55a4df523b3ef91a4949350505050565b60006114e183610994565b6000838152600860209081526040808320546001600160a01b038816845260079092529091209192509081831461153857600083815260208281526040808320548584528184208190558352600890915290208290555b6000938452600860209081526040808620869055938552525081205550565b60095460009061156990600190611e31565b6000838152600a60205260408120546009805493945090928490811061159157611591611c8d565b9060005260206000200154905080600983815481106115b2576115b2611c8d565b6000918252602080832090910192909255828152600a909152604080822084905585825281205560098054806115ea576115ea611ec5565b6001900381819060005260206000200160009055905550505050565b6000600161161384610994565b61161d9190611e31565b6001600160a01b039093166000908152600760209081526040808320868452825280832085905593825260089052919091209190915550565b6001600160a01b03821661168057604051633250574960e11b81526000600482015260240161067a565b600061168e83836000610bfb565b90506001600160a01b03811615610769576040516339e3563760e11b81526000600482015260240161067a565b606060006116c8836117b2565b600101905060008167ffffffffffffffff8111156116e8576116e8611a62565b6040519080825280601f01601f191660200182016040528015611712576020820181803683370190505b5090508181016020015b600019016f181899199a1a9b1b9c1cb0b131b232b360811b600a86061a8153600a850494508461171c57509392505050565b61175983838361188a565b610769576001600160a01b03831661178757604051637e27328960e01b81526004810182905260240161067a565b60405163177e802f60e01b81526001600160a01b03831660048201526024810182905260440161067a565b60008072184f03e93ff9f4daa797ed6e38ed64bf6a1f0160401b83106117f15772184f03e93ff9f4daa797ed6e38ed64bf6a1f0160401b830492506040015b6d04ee2d6d415b85acef8100000000831061181d576d04ee2d6d415b85acef8100000000830492506020015b662386f26fc10000831061183b57662386f26fc10000830492506010015b6305f5e1008310611853576305f5e100830492506008015b612710831061186757612710830492506004015b60648310611879576064830492506002015b600a831061042b5760010192915050565b60006001600160a01b03831615801590610c085750826001600160a01b0316846001600160a01b031614806118c457506118c48484610b27565b80610c085750506000908152600460205260409020546001600160a01b03908116911614919050565b6001600160e01b03198116811461092d57600080fd5b60006020828403121561191557600080fd5b8135611386816118ed565b60005b8381101561193b578181015183820152602001611923565b50506000910152565b6000815180845261195c816020860160208601611920565b601f01601f19169290920160200192915050565b6020815260006113866020830184611944565b60006020828403121561199557600080fd5b5035919050565b80356001600160a01b03811681146119b357600080fd5b919050565b600080604083850312156119cb57600080fd5b6119d48361199c565b946020939093013593505050565b602080825282518282018190526000918401906040840190835b81811015611a1a5783518352602093840193909201916001016119fc565b509095945050505050565b600080600060608486031215611a3a57600080fd5b611a438461199c565b9250611a516020850161199c565b929592945050506040919091013590565b634e487b7160e01b600052604160045260246000fd5b60008067ffffffffffffffff841115611a9357611a93611a62565b50604051601f19601f85018116603f0116810181811067ffffffffffffffff82111715611ac257611ac2611a62565b604052838152905080828401851015611ada57600080fd5b83836020830137600060208583010152509392505050565b60008060408385031215611b0557600080fd5b82359150602083013567ffffffffffffffff811115611b2357600080fd5b8301601f81018513611b3457600080fd5b611b4385823560208401611a78565b9150509250929050565b600060208284031215611b5f57600080fd5b6113868261199c565b60008060408385031215611b7b57600080fd5b611b848361199c565b915060208301358015158114611b9957600080fd5b809150509250929050565b60008060008060808587031215611bba57600080fd5b611bc38561199c565b9350611bd16020860161199c565b925060408501359150606085013567ffffffffffffffff811115611bf457600080fd5b8501601f81018713611c0557600080fd5b611c1487823560208401611a78565b91505092959194509250565b60008060408385031215611c3357600080fd5b611c3c8361199c565b9150611c4a6020840161199c565b90509250929050565b600181811c90821680611c6757607f821691505b602082108103611c8757634e487b7160e01b600052602260045260246000fd5b50919050565b634e487b7160e01b600052603260045260246000fd5b634e487b7160e01b600052601160045260246000fd5b600060018201611ccb57611ccb611ca3565b5060010190565b601f82111561076957806000526020600020601f840160051c81016020851015611cf95750805b601f840160051c820191505b81811015610ff85760008155600101611d05565b815167ffffffffffffffff811115611d3357611d33611a62565b611d4781611d418454611c53565b84611cd2565b6020601f821160018114611d7b5760008315611d635750848201515b600019600385901b1c1916600184901b178455610ff8565b600084815260208120601f198516915b82811015611dab5787850151825560209485019460019092019101611d8b565b5084821015611dc95786840151600019600387901b60f8161c191681555b50505050600190811b01905550565b60008351611dea818460208801611920565b835190830190611dfe818360208801611920565b01949350505050565b634e487b7160e01b600052601260045260246000fd5b600082611e2c57611e2c611e07565b500490565b8181038181111561042b5761042b611ca3565b600082611e5357611e53611e07565b500690565b8082018082111561042b5761042b611ca3565b6001600160a01b0385811682528416602082015260408101839052608060608201819052600090611e9e90830184611944565b9695505050505050565b600060208284031215611eba57600080fd5b8151611386816118ed565b634e487b7160e01b600052603160045260246000fdfea2646970667358221220794ecdc2dab8a14319c2d16424cfbf0db04b0e9c22f847a624bebf65a359afd964736f6c634300081c0033",
  "linkReferences": {},
  "deployedLinkReferences": {}
}