{
  "_format": "hh-sol-artifact-1",
  "contractName": "IngredientToken",
  "sourceName": "contracts/IngredientToken.sol",
  "abi": [
    {
      "inputs": [],
      "stateMutability": "nonpayable",
      "type": "constructor"
    },
    {
      "inputs": [
        {
          "internalType": "address",
          "name": "sender",
          "type": "address"
        },
        {
          "internalType": "uint256",
          "name": "balance",
          "type": "uint256"
        },
        {
          "internalType": "uint256",
          "name": "needed",
          "type": "uint256"
        },
        {
          "internalType": "uint256",
          "name": "tokenId",
          "type": "uint256"
        }
      ],
      "name": "ERC1155InsufficientBalance",
      "type": "error"
    },
    {
      "inputs": [
        {
          "internalType": "address",
          "name": "approver",
          "type": "address"
        }
      ],
      "name": "ERC1155InvalidApprover",
      "type": "error"
    },
    {
      "inputs": [
        {
          "internalType": "uint256",
          "name": "idsLength",
          "type": "uint256"
        },
        {
          "internalType": "uint256",
          "name": "valuesLength",
          "type": "uint256"
        }
      ],
      "name": "ERC1155InvalidArrayLength",
      "type": "error"
    },
    {
      "inputs": [
        {
          "internalType": "address",
          "name": "operator",
          "type": "address"
        }
      ],
      "name": "ERC1155InvalidOperator",
      "type": "error"
    },
    {
      "inputs": [
        {
          "internalType": "address",
          "name": "receiver",
          "type": "address"
        }
      ],
      "name": "ERC1155InvalidReceiver",
      "type": "error"
    },
    {
      "inputs": [
        {
          "internalType": "address",
          "name": "sender",
          "type": "address"
        }
      ],
      "name": "ERC1155InvalidSender",
      "type": "error"
    },
    {
      "inputs": [
        {
          "internalType": "address",
          "name": "operator",
          "type": "address"
        },
        {
          "internalType": "address",
          "name": "owner",
          "type": "address"
        }
      ],
      "name": "ERC1155MissingApprovalForAll",
      "type": "error"
    },
    {
      "inputs": [],
      "name": "IngredientAlreadyExists",
      "type": "error"
    },
    {
      "inputs": [],
      "name": "IngredientNotExists",
      "type": "error"
    },
    {
      "inputs": [],
      "name": "InvalidIngredientID",
      "type": "error"
    },
    {
      "inputs": [
        {
          "internalType": "address",
          "name": "owner",
          "type": "address"
        }
      ],
      "name": "OwnableInvalidOwner",
      "type": "error"
    },
    {
      "inputs": [
        {
          "internalType": "address",
          "name": "account",
          "type": "address"
        }
      ],
      "name": "OwnableUnauthorizedAccount",
      "type": "error"
    },
    {
      "anonymous": false,
      "inputs": [
        {
          "indexed": true,
          "internalType": "address",
          "name": "account",
          "type": "address"
        },
        {
          "indexed": true,
          "internalType": "address",
          "name": "operator",
          "type": "address"
        },
        {
          "indexed": false,
          "internalType": "bool",
          "name": "approved",
          "type": "bool"
        }
      ],
      "name": "ApprovalForAll",
      "type": "event"
    },
    {
      "anonymous": false,
      "inputs": [
        {
          "indexed": true,
          "internalType": "uint256",
          "name": "id",
          "type": "uint256"
        },
        {
          "indexed": false,
          "internalType": "string",
          "name": "name",
          "type": "string"
        }
      ],
      "name": "IngredientRegistered",
      "type": "event"
    },
    {
      "anonymous": false,
      "inputs": [
        {
          "indexed": true,
          "internalType": "uint256",
          "name": "id",
          "type": "uint256"
        }
      ],
      "name": "IngredientRemoved",
      "type": "event"
    },
    {
      "anonymous": false,
      "inputs": [
        {
          "indexed": true,
          "internalType": "address",
          "name": "previousOwner",
          "type": "address"
        },
        {
          "indexed": true,
          "internalType": "address",
          "name": "newOwner",
          "type": "address"
        }
      ],
      "name": "OwnershipTransferred",
      "type": "event"
    },
    {
      "anonymous": false,
      "inputs": [
        {
          "indexed": true,
          "internalType": "address",
          "name": "operator",
          "type": "address"
        },
        {
          "indexed": true,
          "internalType": "address",
          "name": "from",
          "type": "address"
        },
        {
          "indexed": true,
          "internalType": "address",
          "name": "to",
          "type": "address"
        },
        {
          "indexed": false,
          "internalType": "uint256[]",
          "name": "ids",
          "type": "uint256[]"
        },
        {
          "indexed": false,
          "internalType": "uint256[]",
          "name": "values",
          "type": "uint256[]"
        }
      ],
      "name": "TransferBatch",
      "type": "event"
    },
    {
      "anonymous": false,
      "inputs": [
        {
          "indexed": true,
          "internalType": "address",
          "name": "operator",
          "type": "address"
        },
        {
          "indexed": true,
          "internalType": "address",
          "name": "from",
          "type": "address"
        },
        {
          "indexed": true,
          "internalType": "address",
          "name": "to",
          "type": "address"
        },
        {
          "indexed": false,
          "internalType": "uint256",
          "name": "id",
          "type": "uint256"
        },
        {
          "indexed": false,
          "internalType": "uint256",
          "name": "value",
          "type": "uint256"
        }
      ],
      "name": "TransferSingle",
      "type": "event"
    },
    {
      "anonymous": false,
      "inputs": [
        {
          "indexed": false,
          "internalType": "string",
          "name": "value",
          "type": "string"
        },
        {
          "indexed": true,
          "internalType": "uint256",
          "name": "id",
          "type": "uint256"
        }
      ],
      "name": "URI",
      "type": "event"
    },
    {
      "inputs": [
        {
          "internalType": "address",
          "name": "account",
          "type": "address"
        },
        {
          "internalType": "uint256",
          "name": "id",
          "type": "uint256"
        }
      ],
      "name": "balanceOf",
      "outputs": [
        {
          "internalType": "uint256",
          "name": "",
          "type": "uint256"
        }
      ],
      "stateMutability": "view",
      "type": "function"
    },
    {
      "inputs": [
        {
          "internalType": "address[]",
          "name": "accounts",
          "type": "address[]"
        },
        {
          "internalType": "uint256[]",
          "name": "ids",
          "type": "uint256[]"
        }
      ],
      "name": "balanceOfBatch",
      "outputs": [
        {
          "internalType": "uint256[]",
          "name": "",
          "type": "uint256[]"
        }
      ],
      "stateMutability": "view",
      "type": "function"
    },
    {
      "inputs": [
        {
          "internalType": "address",
          "name": "from",
          "type": "address"
        },
        {
          "internalType": "uint256",
          "name": "id",
          "type": "uint256"
        },
        {
          "internalType": "uint256",
          "name": "amount",
          "type": "uint256"
        }
      ],
      "name": "burn",
      "outputs": [],
      "stateMutability": "nonpayable",
      "type": "function"
    },
    {
      "inputs": [
        {
          "internalType": "address",
          "name": "from",
          "type": "address"
        },
        {
          "internalType": "uint256[]",
          "name": "ids",
          "type": "uint256[]"
        },
        {
          "internalType": "uint256[]",
          "name": "amounts",
          "type": "uint256[]"
        }
      ],
      "name": "burnBatch",
      "outputs": [],
      "stateMutability": "nonpayable",
      "type": "function"
    },
    {
      "inputs": [
        {
          "internalType": "uint256",
          "name": "id",
          "type": "uint256"
        }
      ],
      "name": "exists",
      "outputs": [
        {
          "internalType": "bool",
          "name": "",
          "type": "bool"
        }
      ],
      "stateMutability": "view",
      "type": "function"
    },
    {
      "inputs": [
        {
          "internalType": "uint256",
          "name": "id",
          "type": "uint256"
        }
      ],
      "name": "getIngredientName",
      "outputs": [
        {
          "internalType": "string",
          "name": "",
          "type": "string"
        }
      ],
      "stateMutability": "view",
      "type": "function"
    },
    {
      "inputs": [],
      "name": "getValidIngredients",
      "outputs": [
        {
          "internalType": "uint256[]",
          "name": "",
          "type": "uint256[]"
        }
      ],
      "stateMutability": "view",
      "type": "function"
    },
    {
      "inputs": [
        {
          "internalType": "uint256",
          "name": "",
          "type": "uint256"
        }
      ],
      "name": "ingredientNames",
      "outputs": [
        {
          "internalType": "string",
          "name": "",
          "type": "string"
        }
      ],
      "stateMutability": "view",
      "type": "function"
    },
    {
      "inputs": [
        {
          "internalType": "address",
          "name": "account",
          "type": "address"
        },
        {
          "internalType": "address",
          "name": "operator",
          "type": "address"
        }
      ],
      "name": "isApprovedForAll",
      "outputs": [
        {
          "internalType": "bool",
          "name": "",
          "type": "bool"
        }
      ],
      "stateMutability": "view",
      "type": "function"
    },
    {
      "inputs": [
        {
          "internalType": "uint256",
          "name": "id",
          "type": "uint256"
        }
      ],
      "name": "isValidIngredient",
      "outputs": [
        {
          "internalType": "bool",
          "name": "",
          "type": "bool"
        }
      ],
      "stateMutability": "view",
      "type": "function"
    },
    {
      "inputs": [],
      "name": "maxIngredientId",
      "outputs": [
        {
          "internalType": "uint256",
          "name": "",
          "type": "uint256"
        }
      ],
      "stateMutability": "view",
      "type": "function"
    },
    {
      "inputs": [
        {
          "internalType": "address",
          "name": "to",
          "type": "address"
        },
        {
          "internalType": "uint256",
          "name": "id",
          "type": "uint256"
        },
        {
          "internalType": "uint256",
          "name": "amount",
          "type": "uint256"
        },
        {
          "internalType": "bytes",
          "name": "data",
          "type": "bytes"
        }
      ],
      "name": "mint",
      "outputs": [],
      "stateMutability": "nonpayable",
      "type": "function"
    },
    {
      "inputs": [
        {
          "internalType": "address",
          "name": "to",
          "type": "address"
        },
        {
          "internalType": "uint256[]",
          "name": "ids",
          "type": "uint256[]"
        },
        {
          "internalType": "uint256[]",
          "name": "amounts",
          "type": "uint256[]"
        },
        {
          "internalType": "bytes",
          "name": "data",
          "type": "bytes"
        }
      ],
      "name": "mintBatch",
      "outputs": [],
      "stateMutability": "nonpayable",
      "type": "function"
    },
    {
      "inputs": [],
      "name": "owner",
      "outputs": [
        {
          "internalType": "address",
          "name": "",
          "type": "address"
        }
      ],
      "stateMutability": "view",
      "type": "function"
    },
    {
      "inputs": [
        {
          "internalType": "uint256",
          "name": "id",
          "type": "uint256"
        },
        {
          "internalType": "string",
          "name": "name",
          "type": "string"
        }
      ],
      "name": "registerIngredient",
      "outputs": [],
      "stateMutability": "nonpayable",
      "type": "function"
    },
    {
      "inputs": [
        {
          "internalType": "uint256",
          "name": "id",
          "type": "uint256"
        }
      ],
      "name": "removeIngredient",
      "outputs": [],
      "stateMutability": "nonpayable",
      "type": "function"
    },
    {
      "inputs": [],
      "name": "renounceOwnership",
      "outputs": [],
      "stateMutability": "nonpayable",
      "type": "function"
    },
    {
      "inputs": [
        {
          "internalType": "address",
          "name": "from",
          "type": "address"
        },
        {
          "internalType": "address",
          "name": "to",
          "type": "address"
        },
        {
          "internalType": "uint256[]",
          "name": "ids",
          "type": "uint256[]"
        },
        {
          "internalType": "uint256[]",
          "name": "values",
          "type": "uint256[]"
        },
        {
          "internalType": "bytes",
          "name": "data",
          "type": "bytes"
        }
      ],
      "name": "safeBatchTransferFrom",
      "outputs": [],
      "stateMutability": "nonpayable",
      "type": "function"
    },
    {
      "inputs": [
        {
          "internalType": "address",
          "name": "from",
          "type": "address"
        },
        {
          "internalType": "address",
          "name": "to",
          "type": "address"
        },
        {
          "internalType": "uint256",
          "name": "id",
          "type": "uint256"
        },
        {
          "internalType": "uint256",
          "name": "value",
          "type": "uint256"
        },
        {
          "internalType": "bytes",
          "name": "data",
          "type": "bytes"
        }
      ],
      "name": "safeTransferFrom",
      "outputs": [],
      "stateMutability": "nonpayable",
      "type": "function"
    },
    {
      "inputs": [
        {
          "internalType": "address",
          "name": "operator",
          "type": "address"
        },
        {
          "internalType": "bool",
          "name": "approved",
          "type": "bool"
        }
      ],
      "name": "setApprovalForAll",
      "outputs": [],
      "stateMutability": "nonpayable",
      "type": "function"
    },
    {
      "inputs": [
        {
          "internalType": "bytes4",
          "name": "interfaceId",
          "type": "bytes4"
        }
      ],
      "name": "supportsInterface",
      "outputs": [
        {
          "internalType": "bool",
          "name": "",
          "type": "bool"
        }
      ],
      "stateMutability": "view",
      "type": "function"
    },
    {
      "inputs": [],
      "name": "totalSupply",
      "outputs": [
        {
          "internalType": "uint256",
          "name": "",
          "type": "uint256"
        }
      ],
      "stateMutability": "view",
      "type": "function"
    },
    {
      "inputs": [
        {
          "internalType": "uint256",
          "name": "id",
          "type": "uint256"
        }
      ],
      "name": "totalSupply",
      "outputs": [
        {
          "internalType": "uint256",
          "name": "",
          "type": "uint256"
        }
      ],
      "stateMutability": "view",
      "type": "function"
    },
    {
      "inputs": [
        {
          "internalType": "address",
          "name": "newOwner",
          "type": "address"
        }
      ],
      "name": "transferOwnership",
      "outputs": [],
      "stateMutability": "nonpayable",
      "type": "function"
    },
    {
      "inputs": [
        {
          "internalType": "uint256",
          "name": "",
          "type": "uint256"
        }
      ],
      "name": "uri",
      "outputs": [
        {
          "internalType": "string",
          "name": "",
          "type": "string"
        }
      ],
      "stateMutability": "view",
      "type": "function"
    },
    {
      "inputs": [
        {
          "internalType": "uint256",
          "name": "",
          "type": "uint256"
        }
      ],
      "name": "validIngredients",
      "outputs": [
        {
          "internalType": "bool",
          "name": "",
          "type": "bool"
        }
      ],
      "stateMutability": "view",
      "type": "function"
    }
  ],
  "bytecode": "0x608060405234801561001057600080fd5b50604080516020810190915260008152339061002b81610069565b506001600160a01b03811661005a57604051631e4fbdf760e01b81526000600482015260240160405180910390fd5b61006381610079565b50610228565b6002610075828261016a565b5050565b600580546001600160a01b038381166001600160a01b0319831681179093556040519116919082907f8be0079c531659141344cd1fd0a4f28419497f9722a3daafe3b4186f6b6457e090600090a35050565b634e487b7160e01b600052604160045260246000fd5b600181811c908216806100f557607f821691505b60208210810361011557634e487b7160e01b600052602260045260246000fd5b50919050565b601f82111561016557806000526020600020601f840160051c810160208510156101425750805b601f840160051c820191505b81811015610162576000815560010161014e565b50505b505050565b81516001600160401b03811115610183576101836100cb565b6101978161019184546100e1565b8461011b565b6020601f8211600181146101cb57600083156101b35750848201515b600019600385901b1c1916600184901b178455610162565b600084815260208120601f198516915b828110156101fb57878501518255602094850194600190920191016101db565b50848210156102195786840151600019600387901b60f8161c191681555b50505050600190811b01905550565b611e97806102376000396000f3fe608060405234801561001057600080fd5b506004361061018d5760003560e01c8063731133e9116100de578063d02ef86311610097578063f242432a11610071578063f242432a14610397578063f2fde38b146103aa578063f5298aca146103bd578063f63eb89d146103d057600080fd5b8063d02ef8631461034e578063e985e9c514610371578063f208f8ce1461038457600080fd5b8063731133e9146102d15780638da5cb5b146102e4578063a22cb465146102ff578063bd85b03914610312578063c54de01b14610332578063cb65c9191461033b57600080fd5b806341d0f6411161014b5780634f558e79116101255780634f558e79146102715780635c8ad6c7146102935780636b20c454146102b6578063715018a6146102c957600080fd5b806341d0f6411461022b578063447bf3a21461023e5780634e1273f41461025157600080fd5b8062fdd58e1461019257806301ffc9a7146101b85780630e89341c146101db57806318160ddd146101fb5780631f7fdffa146102035780632eb2c2d614610218575b600080fd5b6101a56101a0366004611526565b6103d8565b6040519081526020015b60405180910390f35b6101cb6101c6366004611566565b610400565b60405190151581526020016101af565b6101ee6101e936600461158a565b610450565b6040516101af91906115e9565b6004546101a5565b61021661021136600461174d565b6104e4565b005b6102166102263660046117ef565b610564565b6102166102393660046118a2565b6105d0565b61021661024c36600461158a565b610682565b61026461025f3660046118fc565b610782565b6040516101af91906119f5565b6101cb61027f36600461158a565b600090815260036020526040902054151590565b6101cb6102a136600461158a565b60009081526006602052604090205460ff1690565b6102166102c4366004611a08565b61084e565b610216610866565b6102166102df366004611a7f565b61087a565b6005546040516001600160a01b0390911681526020016101af565b61021661030d366004611ac7565b6108bd565b6101a561032036600461158a565b60009081526003602052604090205490565b6101a560085481565b6101ee61034936600461158a565b6108cc565b6101cb61035c36600461158a565b60066020526000908152604090205460ff1681565b6101cb61037f366004611b03565b610966565b6101ee61039236600461158a565b610994565b6102166103a5366004611b36565b6109df565b6102166103b8366004611b8e565b610a3e565b6102166103cb366004611ba9565b610a7c565b610264610abe565b6000818152602081815260408083206001600160a01b03861684529091529020545b92915050565b60006001600160e01b03198216636cdb3d1360e11b148061043157506001600160e01b031982166303a24d0760e21b145b806103fa57506301ffc9a760e01b6001600160e01b03198316146103fa565b60606002805461045f90611bdc565b80601f016020809104026020016040519081016040528092919081815260200182805461048b90611bdc565b80156104d85780601f106104ad576101008083540402835291602001916104d8565b820191906000526020600020905b8154815290600101906020018083116104bb57829003601f168201915b50505050509050919050565b6104ec610c07565b60005b8351811015610551576006600085838151811061050e5761050e611c16565b60209081029190910181015182528101919091526040016000205460ff166105495760405163581357ed60e11b815260040160405180910390fd5b6001016104ef565b5061055e84848484610c34565b50505050565b336001600160a01b038616811480159061058557506105838682610966565b155b156105bb5760405163711bec9160e11b81526001600160a01b038083166004830152871660248201526044015b60405180910390fd5b6105c88686868686610c6c565b505050505050565b6105d8610c07565b60008281526006602052604090205460ff161561060857604051637de6844760e01b815260040160405180910390fd5b6000828152600660209081526040808320805460ff19166001179055600790915290206106358282611c73565b506008548211156106465760088290555b817fab14cf47dafc6e6f5ad512b59307f5ecb35da8c8806f4259b2c46bedb3a79b018260405161067691906115e9565b60405180910390a25050565b61068a610c07565b60008181526006602052604090205460ff166106b957604051637e50553560e11b815260040160405180910390fd5b6000818152600360205260409020541561072b5760405162461bcd60e51b815260206004820152602d60248201527f43616e6e6f742072656d6f766520696e6772656469656e74207769746820657860448201526c697374696e6720737570706c7960981b60648201526084016105b2565b6000818152600660209081526040808320805460ff1916905560079091528120610754916114bc565b60405181907f649feb93d2489e5f18d5b966af0e2e1a8bb86425417906a0a3ce2b9b4a2d5d2390600090a250565b606081518351146107b35781518351604051635b05999160e01b8152600481019290925260248201526044016105b2565b600083516001600160401b038111156107ce576107ce6115fc565b6040519080825280602002602001820160405280156107f7578160200160208202803683370190505b50905060005b845181101561084657602080820286010151610821906020808402870101516103d8565b82828151811061083357610833611c16565b60209081029190910101526001016107fd565b509392505050565b610856610c07565b610861838383610cd3565b505050565b61086e610c07565b6108786000610d19565b565b610882610c07565b60008381526006602052604090205460ff166108b15760405163581357ed60e11b815260040160405180910390fd5b61055e84848484610d6b565b6108c8338383610dc8565b5050565b600760205260009081526040902080546108e590611bdc565b80601f016020809104026020016040519081016040528092919081815260200182805461091190611bdc565b801561095e5780601f106109335761010080835404028352916020019161095e565b820191906000526020600020905b81548152906001019060200180831161094157829003601f168201915b505050505081565b6001600160a01b03918216600090815260016020908152604080832093909416825291909152205460ff1690565b60008181526006602052604090205460609060ff166109c657604051637e50553560e11b815260040160405180910390fd5b6000828152600760205260409020805461045f90611bdc565b336001600160a01b0386168114801590610a0057506109fe8682610966565b155b15610a315760405163711bec9160e11b81526001600160a01b038083166004830152871660248201526044016105b2565b6105c88686868686610e5e565b610a46610c07565b6001600160a01b038116610a7057604051631e4fbdf760e01b8152600060048201526024016105b2565b610a7981610d19565b50565b610a84610c07565b60008281526006602052604090205460ff16610ab35760405163581357ed60e11b815260040160405180910390fd5b610861838383610eec565b606060006008546001610ad19190611d47565b6001600160401b03811115610ae857610ae86115fc565b604051908082528060200260200182016040528015610b11578160200160208202803683370190505b5090506000805b6008548111610b765760008181526006602052604090205460ff1615610b645780838381518110610b4b57610b4b611c16565b602090810291909101015281610b6081611d5a565b9250505b80610b6e81611d5a565b915050610b18565b506000816001600160401b03811115610b9157610b916115fc565b604051908082528060200260200182016040528015610bba578160200160208202803683370190505b50905060005b8281101561084657838181518110610bda57610bda611c16565b6020026020010151828281518110610bf457610bf4611c16565b6020908102919091010152600101610bc0565b6005546001600160a01b031633146108785760405163118cdaa760e01b81523360048201526024016105b2565b6001600160a01b038416610c5e57604051632bfa23e760e11b8152600060048201526024016105b2565b61055e600085858585610f50565b6001600160a01b038416610c9657604051632bfa23e760e11b8152600060048201526024016105b2565b6001600160a01b038516610cbf57604051626a0d4560e21b8152600060048201526024016105b2565b610ccc8585858585610f50565b5050505050565b6001600160a01b038316610cfc57604051626a0d4560e21b8152600060048201526024016105b2565b610861836000848460405180602001604052806000815250610f50565b600580546001600160a01b038381166001600160a01b0319831681179093556040519116919082907f8be0079c531659141344cd1fd0a4f28419497f9722a3daafe3b4186f6b6457e090600090a35050565b6001600160a01b038416610d9557604051632bfa23e760e11b8152600060048201526024016105b2565b604080516001808252602082018690528183019081526060820185905260808201909252906105c8600087848487610f50565b6001600160a01b038216610df15760405162ced3e160e81b8152600060048201526024016105b2565b6001600160a01b03838116600081815260016020908152604080832094871680845294825291829020805460ff191686151590811790915591519182527f17307eab39ab6107e8899845ad3d59bd9653f200f220920489ca2b5937696c31910160405180910390a3505050565b6001600160a01b038416610e8857604051632bfa23e760e11b8152600060048201526024016105b2565b6001600160a01b038516610eb157604051626a0d4560e21b8152600060048201526024016105b2565b60408051600180825260208201869052818301908152606082018590526080820190925290610ee38787848487610f50565b50505050505050565b6001600160a01b038316610f1557604051626a0d4560e21b8152600060048201526024016105b2565b604080516001808252602082018590528183019081526060820184905260a08201909252600060808201818152919291610ccc918791859085905b610f5c85858585610fa3565b6001600160a01b03841615610ccc5782513390600103610f955760208481015190840151610f8e838989858589610faf565b50506105c8565b6105c88187878787876110d3565b61055e848484846111bc565b6001600160a01b0384163b156105c85760405163f23a6e6160e01b81526001600160a01b0385169063f23a6e6190610ff39089908990889088908890600401611d73565b6020604051808303816000875af192505050801561102e575060408051601f3d908101601f1916820190925261102b91810190611db8565b60015b611097573d80801561105c576040519150601f19603f3d011682016040523d82523d6000602084013e611061565b606091505b50805160000361108f57604051632bfa23e760e11b81526001600160a01b03861660048201526024016105b2565b805181602001fd5b6001600160e01b0319811663f23a6e6160e01b14610ee357604051632bfa23e760e11b81526001600160a01b03861660048201526024016105b2565b6001600160a01b0384163b156105c85760405163bc197c8160e01b81526001600160a01b0385169063bc197c81906111179089908990889088908890600401611dd5565b6020604051808303816000875af1925050508015611152575060408051601f3d908101601f1916820190925261114f91810190611db8565b60015b611180573d80801561105c576040519150601f19603f3d011682016040523d82523d6000602084013e611061565b6001600160e01b0319811663bc197c8160e01b14610ee357604051632bfa23e760e11b81526001600160a01b03861660048201526024016105b2565b6111c8848484846112a8565b6001600160a01b038416611248576000805b835181101561122e5760208181028481018201519086018201516000908152600390925260408220805491928392611213908490611d47565b9091555061122390508184611d47565b9250506001016111da565b5080600460008282546112419190611d47565b9091555050505b6001600160a01b03831661055e576000805b835181101561129757602081810284810182015190860182015160009081526003909252604090912080548290039055919091019060010161125a565b506004805491909103905550505050565b80518251146112d75781518151604051635b05999160e01b8152600481019290925260248201526044016105b2565b3360005b83518110156113dd576020818102858101820151908501909101516001600160a01b0388161561138e576000828152602081815260408083206001600160a01b038c16845290915290205481811015611367576040516303dee4c560e01b81526001600160a01b038a1660048201526024810182905260448101839052606481018490526084016105b2565b6000838152602081815260408083206001600160a01b038d16845290915290209082900390555b6001600160a01b038716156113d3576000828152602081815260408083206001600160a01b038b168452909152812080548392906113cd908490611d47565b90915550505b50506001016112db565b50825160010361145e5760208301516000906020840151909150856001600160a01b0316876001600160a01b0316846001600160a01b03167fc3d58168c5ae7397731d063d5bbf3d657854427343f4c083240f7aacaa2d0f62858560405161144f929190918252602082015260400190565b60405180910390a45050610ccc565b836001600160a01b0316856001600160a01b0316826001600160a01b03167f4a39dc06d4c0dbc64b70af90fd698a233a518aa5d07e595d983b8c0526c8f7fb86866040516114ad929190611e33565b60405180910390a45050505050565b5080546114c890611bdc565b6000825580601f106114d8575050565b601f016020900490600052602060002090810190610a7991905b8082111561150657600081556001016114f2565b5090565b80356001600160a01b038116811461152157600080fd5b919050565b6000806040838503121561153957600080fd5b6115428361150a565b946020939093013593505050565b6001600160e01b031981168114610a7957600080fd5b60006020828403121561157857600080fd5b813561158381611550565b9392505050565b60006020828403121561159c57600080fd5b5035919050565b6000815180845260005b818110156115c9576020818501810151868301820152016115ad565b506000602082860101526020601f19601f83011685010191505092915050565b60208152600061158360208301846115a3565b634e487b7160e01b600052604160045260246000fd5b604051601f8201601f191681016001600160401b038111828210171561163a5761163a6115fc565b604052919050565b60006001600160401b0382111561165b5761165b6115fc565b5060051b60200190565b600082601f83011261167657600080fd5b813561168961168482611642565b611612565b8082825260208201915060208360051b8601019250858311156116ab57600080fd5b602085015b838110156116c85780358352602092830192016116b0565b5095945050505050565b6000806001600160401b038411156116ec576116ec6115fc565b50601f8301601f191660200161170181611612565b91505082815283838301111561171657600080fd5b828260208301376000602084830101529392505050565b600082601f83011261173e57600080fd5b611583838335602085016116d2565b6000806000806080858703121561176357600080fd5b61176c8561150a565b935060208501356001600160401b0381111561178757600080fd5b61179387828801611665565b93505060408501356001600160401b038111156117af57600080fd5b6117bb87828801611665565b92505060608501356001600160401b038111156117d757600080fd5b6117e38782880161172d565b91505092959194509250565b600080600080600060a0868803121561180757600080fd5b6118108661150a565b945061181e6020870161150a565b935060408601356001600160401b0381111561183957600080fd5b61184588828901611665565b93505060608601356001600160401b0381111561186157600080fd5b61186d88828901611665565b92505060808601356001600160401b0381111561188957600080fd5b6118958882890161172d565b9150509295509295909350565b600080604083850312156118b557600080fd5b8235915060208301356001600160401b038111156118d257600080fd5b8301601f810185136118e357600080fd5b6118f2858235602084016116d2565b9150509250929050565b6000806040838503121561190f57600080fd5b82356001600160401b0381111561192557600080fd5b8301601f8101851361193657600080fd5b803561194461168482611642565b8082825260208201915060208360051b85010192508783111561196657600080fd5b6020840193505b8284101561198f5761197e8461150a565b82526020938401939091019061196d565b945050505060208301356001600160401b038111156119ad57600080fd5b6118f285828601611665565b600081518084526020840193506020830160005b828110156119eb5781518652602095860195909101906001016119cd565b5093949350505050565b60208152600061158360208301846119b9565b600080600060608486031215611a1d57600080fd5b611a268461150a565b925060208401356001600160401b03811115611a4157600080fd5b611a4d86828701611665565b92505060408401356001600160401b03811115611a6957600080fd5b611a7586828701611665565b9150509250925092565b60008060008060808587031215611a9557600080fd5b611a9e8561150a565b9350602085013592506040850135915060608501356001600160401b038111156117d757600080fd5b60008060408385031215611ada57600080fd5b611ae38361150a565b915060208301358015158114611af857600080fd5b809150509250929050565b60008060408385031215611b1657600080fd5b611b1f8361150a565b9150611b2d6020840161150a565b90509250929050565b600080600080600060a08688031215611b4e57600080fd5b611b578661150a565b9450611b656020870161150a565b9350604086013592506060860135915060808601356001600160401b0381111561188957600080fd5b600060208284031215611ba057600080fd5b6115838261150a565b600080600060608486031215611bbe57600080fd5b611bc78461150a565b95602085013595506040909401359392505050565b600181811c90821680611bf057607f821691505b602082108103611c1057634e487b7160e01b600052602260045260246000fd5b50919050565b634e487b7160e01b600052603260045260246000fd5b601f82111561086157806000526020600020601f840160051c81016020851015611c535750805b601f840160051c820191505b81811015610ccc5760008155600101611c5f565b81516001600160401b03811115611c8c57611c8c6115fc565b611ca081611c9a8454611bdc565b84611c2c565b6020601f821160018114611cd45760008315611cbc5750848201515b600019600385901b1c1916600184901b178455610ccc565b600084815260208120601f198516915b82811015611d045787850151825560209485019460019092019101611ce4565b5084821015611d225786840151600019600387901b60f8161c191681555b50505050600190811b01905550565b634e487b7160e01b600052601160045260246000fd5b808201808211156103fa576103fa611d31565b600060018201611d6c57611d6c611d31565b5060010190565b6001600160a01b03868116825285166020820152604081018490526060810183905260a060808201819052600090611dad908301846115a3565b979650505050505050565b600060208284031215611dca57600080fd5b815161158381611550565b6001600160a01b0386811682528516602082015260a060408201819052600090611e01908301866119b9565b8281036060840152611e1381866119b9565b90508281036080840152611e2781856115a3565b98975050505050505050565b604081526000611e4660408301856119b9565b8281036020840152611e5881856119b9565b9594505050505056fea2646970667358221220e57264b63ca68287758412638f76246268e4907c58dfa375be0731abf36c000a64736f6c634300081c0033",
  "linkReferences": {},
  "deployedLinkReferences": {}
}